:020000040800F2
:10000000203F00204140000855A1000861A10008E0
:10001000ADA10008B5A10008BDA1000800000000C6
:10002000000000000000000000000000C5A1000862
:10003000D1A1000800000000DDA10008E9A100082E
:10004000A1400008A1400008A1400008F5A1000857
:10005000A1400008A1400008A1400008A1400008FC
:10006000A1400008A1400008A1400008A1400008EC
:10007000A1400008A1400008A1400008C9A600084E
:10008000A1400008A140000889A50008A14000087F
:10009000A1400008A1400008A1400008A1400008BC
:1000A000A1400008D1A20008A1400008A14000081A
:1000B0001DA30008A14000080DA40008A1400008ED
:1000C00081A40008A1400008A1400008A140000848
:1000D000A1400008A1400008A1400008A14000087C
:1000E000A1400008A1400008A14000080000000055
:1000F0000000000000000000000000000000000000
:1001000000000000000000005FF808F180B586B034
:1001100000AF3E4A3B1D92E803001860043319808B
:1001200007F10A0300221A80023300221A800233E8
:1001300000221A80023300221A80023300221A8021
:10014000023300221A80023300221A800233002078
:1001500011F0AEFB48F6601010F084FE2C480FF052
:10016000BDFD2D207A2101222A4B10F013F848F210
:10017000104010F077FE28480FF0B0FD3B1D04330F
:1001800018462649392206F017FB3B1D184614F085
:10019000BDFE03463A1D1344214A10681860928838
:1001A0009A803B1D184614F0B1FE03463A1D1344D5
:1001B0001C4A12881A803B1D64206E2101220FF018
:1001C000E9FF64205F210122174B0FF0E3FF642059
:1001D00050210122154B0FF0DDFF4FF4F27010F0AB
:1001E00041FEB42005210022114B0FF0D3FF4FF444
:1001F0007A700CF0C5F94FF47A700CF0C1F94FF435
:100200007A700CF0BDF91837BD4680BD0051010869
:100210005462010888500108D07201089450010806
:1002200098500108A0500108A4500108CC500108C2
:10023000E4500108B0B582B002AFFFF767FF314B61
:100240001B88184611F034FB2F4B1B88184610F002
:100250000FFE2E4B18882E4B1B88053399B22D4B61
:100260001A882D4B1B88053B9BB22C4C24880125FA
:100270000095019410F092FB2948012111F0E2FD54
:10028000284801F003FD274801F068FB26480FF0DD
:1002900025FD264B9B79DBB2012B02D1244801F0CE
:1002A0005DFB244B1B78012B06D10120214901F075
:1002B000CBFE012001F054FE002000F031FB0120B4
:1002C00048F210414FF4784200F07CFE01201A49B8
:1002D00001F028F8194B93F86030184602F0A2FF9D
:1002E00000F032FE6420002100F094FC4CF65963CB
:1002F00000934FF4A070E0210122114B0FF0ACFFEE
:10030000BD46B0BD4C000020E62700205A0000206A
:10031000600000205C0000205E0000204E000020F5
:1003200038000020B8210020D072010810020020FF
:100330008C26002012290020EC00002068000020FC
:100340001451010880B582B000AF0346FB80314BE9
:100350001A88314B1B88013B9BB2002011461A467C
:1003600007F036FB2B4B1A882B4B1B88013B9BB2AB
:10037000012011461A4607F02BFB2848002111F0F6
:1003800061FD0320002100F0F7FE254B1B88184675
:10039000032101F0BFF8234B1B881846032101F00D
:1003A000B9F81D4BFA881A801B4B1B885A1C194B35
:1003B0001B881344DA0F13445B109AB2174B1A8050
:1003C000154B1A88134B1B88D31A9AB2134B9A8079
:1003D000124B1B88DAB2114B1988134BA3FB010394
:1003E000DB089BB2DBB21946C900CB1A194648019B
:1003F000194603460B44DBB21344DAB20B4B1A70B6
:100400000648012111F01EFD02F012FC0837BD461E
:1004100080BD00BF5A0000205C0000203800002092
:100420008C2700208E2700201F85EB5148200020BC
:1004300080B582B000AF0346FB71FB79012B24D15C
:100440001F4B1B68002B04D01D4B1A681D4B1A60F4
:100450000CE01D4B1A681D4B9A4207D0194B1A68C5
:100460001B4B9A4202D1174B1A4A1A601A4B1B783F
:10047000012B06D1194B01229A71194801F06EFA2D
:100480001AE0164B00229A7116E0FB79002B13D16B
:10049000124B9B79DAB2104B1A700A4B1A68084B50
:1004A0001A600E4B9B79DBB2012B05D10B4B00225E
:1004B0009A710B4801F0FAFA0837BD4680BD00BFBB
:1004C000E8270020E0260020AC2000208820002023
:1004D000107E0108007E0108EC2700201002002099
:1004E0008C26002000000000B0B588B000AFF88076
:1004F000B9807A803B80FA887B889A4204D9FA884E
:100500007B88D31A9BB203E07A88FB88D31A9BB20C
:10051000BB83BA883B889A4204D9BA883B88D31AED
:100520009BB203E03A88BB88D31A9BB27B83386BBB
:1005300013F0CEFC02460B461046194638A3D3E909
:10054000002313F019FD02460B4614461D46BB8BD3
:10055000184614F0F9F80346184613F0B9FC0246A1
:100560000B462046294613F031FE02460B46104644
:10057000194613F0E3FF03467B61FA887B889A42B1
:1005800038BF1346FB83BA883B889A4238BF13466C
:100590007B827B8B5B089AB27B8A13447B8236E03A
:1005A000FA8BFB88D31A184614F0D2F80346184683
:1005B000796914F021F90346FB60F86811F0FCFD3D
:1005C00004467B8B5B089BB2184614F0C1F80346C7
:1005D0002046194614F010F903461C467B8A18463B
:1005E00014F0B6F803462046194613F0FDFF034603
:1005F000184614F0EDFA03469AB2F98BBB8E084602
:1006000011461A460FF058FEFB8B0133FB83FA8B21
:10061000FB88D21ABB8B9A42C2DB2037BD46B0BDE5
:10062000182D4454FB211940B0B588B002AF0346E1
:10063000FB71914B9B88184614F086F804468F4B4B
:100640001B889BB2184614F07FF805468C4B1B683C
:10065000184614F079F803462846194614F080F934
:1006600003462046194614F0C7F803463B61854B04
:100670009B881BB2184614F06BF80446824B1B682B
:100680001B78184614F064F803463869194614F0CC
:1006900067F903462046194614F0AEF80346FB609E
:1006A0000023FB82FB79002B27D1734B1A88774BF1
:1006B0001B881344FB82764B1B881A46714B9B8820
:1006C0001BB29A4204D148F6601010F0D1FB04E04E
:1006D000694B1B89184610F0CBFB674B5B880133D5
:1006E00099B2654B5A88644BDB8813449BB2013B3B
:1006F0009BB2F88AFA8A0FF0F5FD5F4B1B88013335
:1007000098B25D4B5A885C4BDB889B089BB21344C4
:100710009BB2013399B2584B1A88574B9B881344AC
:100720009BB2013B9CB2544B5D88534BDB881A460D
:1007300013465B001344002B00DA03339B109BB27B
:100740002B449BB202339BB2524A009248F21042B1
:1007500001922246FFF7C8FE4F4B5B78DBB2002BBD
:1007600000F0C480FB79012B40F0C080454B1A6833
:100770004A4B1B88D31A184613F0EAFF04463E4B37
:100780009B88184613F0E0FF03462046194614F0F4
:1007900033F803461C463A4B1B68184613F0D4FF47
:1007A0000546394B1B681B78184613F0CDFF0346EE
:1007B0002846194614F020F803462046194614F03E
:1007C000CFF80346184614F003FA0346FB82FB8A6F
:1007D000184613F0BDFF0446F8684FF07E5113F041
:1007E00003FF03462046194614F0A4F90346002BE4
:1007F0000BD0F8684FF07E5113F0F6FE0346184612
:1008000014F0E6F90346FB8226E0FB8A184613F053
:100810009FFF0446F868396913F0E6FE0346184660
:100820004FF07E5113F0DEFE03462046194614F0C9
:100830009FF90346002B0FD0F868396913F0D4FEF6
:10084000034618464FF07E5113F0CCFE034618467F
:1008500014F0BEF90346FB82074B1A88FB8A134447
:10086000FB82FA8A044B1B8802339A4218DA024B45
:100870001B880233FB8225E0A02100201C020020FF
:1008800010020020EC0000205C220020620000200A
:10089000EE27002000002041000200205A00002026
:1008A000FA8A1A4B1B881946184B9B880B44023B4B
:1008B0009A4207DD154B1A88144B9B8813449BB250
:1008C000023BFB824FF6FF7010F0D2FA0F4B5B88B1
:1008D000013399B20D4B5A880C4BDB8813449BB201
:1008E000013B9BB2F88AFA8A0FF0FCFC074B1B888D
:1008F000FA8AD31A9AB2064B1A80064B9B889AB290
:10090000054B1A801837BD46B0BD00BFA02100209E
:1009100062000020EC000020EE2700200000000014
:10092000F0B589B002AF0346FB71874B1B889BB2C1
:10093000184613F009FF0346184613F0C9FA024699
:100940000B46104619467EA3D3E9002313F014FB8F
:1009500002460B4614461D467C4B1B68184613F096
:10096000F3FE06467A4B1B681B78184613F0F0FE20
:1009700003463046194613F03FFF0346184613F06E
:10098000A7FA02460B462046294613F01FFC0246F2
:100990000B461046194613F0D1FD03467B616A4BA6
:1009A0005B889BB21BB2184613F0D2FE0346184672
:1009B000796913F021FF034618464FF07E5113F07A
:1009C00013FE03463B61634B1A68634B9A4202D1A4
:1009D00048F2104301E043F28613FB8148F66013AE
:1009E000BB815E4B1B89184610F042FA5B4B18889E
:1009F0005A4B5988594B1A88584B9B8813449AB2C2
:100A0000564B5C88554BDB8823449BB2FC790094A1
:100A1000FC8901940FF0C2FF78694FF0804114F017
:100A200093F80346002B03D04FF080437B6108E02E
:100A300078694B4914F092F80346002B01D0494BDA
:100A40007B61BB89184610F013FA444B1B8818468B
:100A500013F07EFE03461846396913F0C5FD0346C0
:100A6000184614F0B5F803469DB23C4B5B88013341
:100A70009CB23A4B1B88184613F06AFE0346184690
:100A8000396913F0B1FD03461846796913F0ACFDDE
:100A9000034618464FF0804113F0A4FD0346184664
:100AA00014F096F803469AB22C4B59882B4BDB88EE
:100AB0000B449BB2013B9BB20021009100210191AC
:100AC000284621460FF06AFF0120FFF7ADFDFB79B4
:100AD000002B30D1244B1B88184610F0C9F91F4B4E
:100AE00018881E4B5A881D4BDB88134499B21B4B48
:100AF0001A881A4B9B8813449AB2184B5C88174B80
:100B0000DB8823449BB20FF0EDFB144B1A88134B88
:100B10009B88134498B2114B5988104B1A880F4B7D
:100B20009B8813449AB20D4B5C880C4BDB882344A2
:100B30009BB20FF0D7FB1C37BD46F0BDAFF3008072
:100B40000000000000C067401C02002010020020CE
:100B50005C22002028020020659D0008A0210020C2
:100B600000003E4300003D43E6270020AFF3008035
:100B700080B584B000AFF880B9807A803B800023D4
:100B8000FB813DE0FA893988BB88CB1AD90F0B4429
:100B90005B109A4206DAFB89184613F0D5FD03462E
:100BA000BB600DE03A88BB88D31ADA0F13445B10A0
:100BB0001A46FB89D31A184613F0CAFD0346BB60D8
:100BC000B868F96913F018FE0346184613F0DAFF07
:100BD0000346DBB23A8B5BB21046194608F086FF3B
:100BE00003463B83BA88FB8913449AB2F9883B8B4E
:100BF000084611461A460FF05FFBFB890133FB8163
:100C0000FA893988BB88CB1A9A42BBDB1037BD46BC
:100C100080BD00BF90B589B002AF02460B46FA71A5
:100C2000BB7110F02BF90346BB821E23FB74DF233C
:100C3000BB74EE237B744FF4C773FB81FB7C9BB2C8
:100C4000FA89D31A9BB2013BBB81FB79642B01D992
:100C50006423FB71FB79FA7C02FB03F35D4A82FBA0
:100C600003125211DB17D31AFB71BB79002B1BD176
:100C70004FF6FF7010F0FCF8BB89033398B2BB7CD1
:100C800099B27B7C9BB2FA890FF06AFEBB7C9BB267
:100C9000043399B2BB8903339AB27B7C9BB2043B89
:100CA0009BB2B8890FF05CFE4B4B1B78FA799A42E5
:100CB00048D9494B1B780133FB823DE0FA7CFB8A23
:100CC000D31A9BB25B009BB2C3F13C02434B33F897
:100CD00012307B81FB8A1B2B14D8FA89FB8AD31A2A
:100CE00098B2BB7C9BB2013399B2FA89FB8AD31AC2
:100CF0009AB27B7C9BB27C890094394C0194FFF7BB
:100D000037FF16E0FA89FB8AD31A98B2BB7C9BB2F4
:100D1000053399B2FA89FB8AD31A9AB27B7C9BB2CB
:100D2000043B9BB27C8900944FF07E540194FFF702
:100D30001FFFFB8A0133FB82FA8AFB7901339A4257
:100D4000BCDB3CE0244B1B78FA799A4237D243F261
:100D5000861010F08DF8FB799BB20133FB8228E0FE
:100D6000FB8A1B2B10D8FA89FB8AD31A98B2BB7C5A
:100D70009BB2013399B2FA89FB8AD31A9AB27B7C6F
:100D80009BB20FF0AFFA11E0FA89FB8AD31A98B23E
:100D9000BB7C9BB2053399B2FA89FB8AD31A9AB20B
:100DA0007B7C9BB2043B9BB20FF09CFAFB8A013325
:100DB000FB82FA8A084B1B7801339A42D0DB064B40
:100DC000FA791A70BB8A184610F052F81C37BD46E3
:100DD00090BD00BF1F85EB51F0270020D0670108B0
:100DE0009A99993E80B584B002AF0346FB71164BC9
:100DF0001B88184610F04AF814480EF06FFF124B8B
:100E00001B88009340F25D10E0210022104B0FF090
:100E100023FAFB79632B01D96323FB71FB79184615
:100E20000B49022201F022FB4CF65963009340F279
:100E30005D10E0210022064B0FF00EFA054B002258
:100E40001A700837BD4680BD4C000020D0720108E2
:100E5000640000200E28002080B586B002AF034653
:100E6000FB80234BFB60234B01221A70224B1B8813
:100E7000184610F00BF821480EF030FFFB681A7886
:100E80001F4B1B789A4201D000F040F8FB681A789B
:100E90001B4B1A701B4B5B78DBB2002B0AD1FB8813
:100EA00018460FF0DFFF40F21F400FF0E1FF164B36
:100EB000FB6007E0FB8818460FF0D4FF4FF4784042
:100EC0000FF0D6FF00230093002301934FF4987096
:100ED000E1214FF49D72EB230FF060FD4FF4997008
:100EE000DF210122FB680FF055F91037BD4680BDA8
:100EF0001C510108E4270020E6270020D0720108D9
:100F000067000020000200202051010880B582B057
:100F100002AF0B4B00221A700A4B1B8818460FF0C9
:100F2000A7FF00230093002301934FF49870E12161
:100F30004FF49D72EB230FF031FDBD4680BD00BF25
:100F4000E42700204C00002080B500AF002005F011
:100F500013FE084B1B681B88184600F00DF8012093
:100F600005F00AFE034B1B681B88184600F004F8C6
:100F700080BD00BF7C29002080B586B004AF034649
:100F8000FB800E4B1B689B78033B9AB20B4B1B6894
:100F90009B7805339BB20A49088808490968897813
:100FA000013189B200900191F98802910020114627
:100FB00000220FF079FE0837BD4680BD7C29002055
:100FC0005A00002090B58BB004AF13460246FA7168
:100FD0000A46BA807B80604B1A68604B9A4201D106
:100FE0005F4B00E05D4BFB60FB79FB755D4B5B7815
:100FF000DBB2002B03D1FB79012B00D1A8E05A48CA
:101000000EF06CFE594B1B8818460FF02BFF554B0A
:101010009B78DBB2012B18D9FB79012B09D14E4B00
:101020001B684FF6FF72DA80FB6848F21042DA80E4
:1010300006E0494B1B68BA88DA80FB68BA88DA8018
:101040007B88BB827B887B8217E0FB79012B05D1F3
:10105000414B1B684FF6FF72DA8003E03E4B1B6882
:10106000BA88DA80414B1A88FB68DA800023FB7566
:101070007B88BB823D4B1B887B82FB681B689BB2D5
:10108000033B9AB2FB681B689BB205339BB238499D
:101090000C88F968096889B2013188B2F968C98891
:1010A0000094019002910020114600220FF0FCFDF7
:1010B000FB7D1846F96800F05FF87B8A18460FF050
:1010C000D1FEFB681B689BB2023B9AB2FB689B682F
:1010D0000020114601220FF05DF81F4B1B681B68B2
:1010E0009BB2033B9AB21C4B1B681B689BB2053337
:1010F0009BB21F490C8818490968096889B20131F7
:1011000088B215490968C9880094019002910020AD
:10111000114600220FF0C8FD0F4B1B68FA791046EC
:10112000194600F029F8BB8A18460FF09BFE0A4BBF
:101130001B681B689BB2023B9AB2074B1B689B68FB
:101140000020114601220FF025F80A480EF0C6FDD6
:101150001C37BD4690BD00BFFC000020CC00002025
:10116000DC00002000020020146301084C00002075
:101170005A000020D072010880B586B000AF034647
:101180003960FB71624B1B8802339BB23B82614B1F
:101190001B689BB2FB81604B1A885D4B1B88D31A7E
:1011A0009BB2023B9BB2BB815A4B1B689BB27B81BB
:1011B000FB79002B36D10023FB8228E0544B1A88A0
:1011C000FB8A13449BB20233BB823B681B689BB211
:1011D000BA8A104619460EF027FD0346012B13D09C
:1011E0003B681B689BB2BA8A1046194600F0ECFABD
:1011F00003467B823B681B689AB2B98A7B8A0846A1
:1012000011461A460FF058F8FB8A0133FB82FA8A1E
:10121000414B1B8819463E4B1B88CB1A023B9A4216
:10122000CCDB71E0FB79032B41D13C4B1B8818468A
:101230000FF01EFE07F1100007F10E0107F10C027E
:1012400007F10A030EF01CFD0346012B05D0388A76
:10125000F989BA897B890FF045F82D4B1B88023339
:101260009BB23B822E4B1B689BB2FB812A4B1A8898
:10127000274B1B88D31A9BB2023B9BB2BB81284BE6
:101280001B689BB27B8107F1100007F10E0107F18B
:101290000C0207F10A030EF0F3FC0346012B33D0D6
:1012A000388AF989BA897B890FF01CF82CE03B68F1
:1012B000002B29D03B68DB8818460FF0D9FD144B72
:1012C0001B880233FB8219E03B681B689BB2FA8AD9
:1012D000104619460EF0A8FC0346012B0BD03B68C4
:1012E0001B6899B2FB8A06339AB23B681B689BB2B3
:1012F000F88A0EF0F7FFFB8A0A33FB82FA8A064B64
:101300001B88073B9A42DFDD1837BD4680BD00BF12
:101310005A000020CC0000205C000020E6270020BE
:10132000DC00002080B588B000AF03463960FB7157
:10133000704B5B889BB21BB240F2851202FB03F339
:10134000BB616D4B1B881A46BB6913440A337B6132
:101350006A4B1B881A46BB6913440A3B3B61684BC6
:101360009A88644B5B889BB212B21BB29A421DD121
:101370003B681B681A467B699A4203D27A693B68CC
:101380001A6008E03B681B681A463B699A4202D91A
:101390003A693B681A603B681B689AB2BB699BB2AA
:1013A000D31AFB81FB79002B06D000E09EE0554B61
:1013B0005B78DBB2002B4FD1534B1B8818460FF0E4
:1013C00057FDFB89033B98B2504B1B88043B99B2F5
:1013D000FB8904339AB24D4B1B88043B9BB20EF041
:1013E00081FFFB89033B98B2494B1B88043399B2B8
:1013F000FB8904339AB2464B1B8804339BB20EF030
:1014000071FF434B1B880633FB831BE0FA89FB8B80
:10141000104619460EF008FC0346012B0FD0FA893E
:10142000FB8B1046194600F0CFF90346BB81F989C2
:10143000FA8BBB89084611461A460EF03DFFFB8B1E
:101440000133FB83FA8B314B1B88063B9A42DDDB71
:101450002B4B00225A7349E0FB79012B46D14EF603
:10146000A0300FF005FDFB89033B98B2274B1B888A
:10147000043B99B2FB8904339AB2244B1B88043B8A
:101480009BB20EF02FFFFB89033B98B2204B1B88C9
:10149000043399B2FB8904339AB21D4B1B88043381
:1014A0009BB20EF01FFF1A4B1B880633FB8314E020
:1014B000FA89FB8B104619460EF0B6FB0346012B4A
:1014C00008D00F4BDB88F989FA8B084611461A467B
:1014D0000EF0F2FEFB8B0133FB83FA8B0B4B1B8868
:1014E000063B9A42E4DB064B01225A732037BD4685
:1014F00080BD00BF1C0200205A0000205C000020BC
:10150000EC00002000020020E62700205E00002002
:101510006000002080B586B000AF02460B46FA801E
:101520007B71FB887B82834B1B8806339BB23B829B
:10153000FB88FB81804B1A887E4B1B88D31A9BB299
:10154000103B9BB2BB817B79002B6DD17B4B1B8801
:1015500018460FF08DFC7A4B1888774B1B88053B9B
:1015600099B2784B1A88744B1B88053B9BB20EF0DE
:10157000B9FEFB88023B98B26E4B1B88053399B2CB
:10158000FB8803339AB26B4B1B8805339BB20EF07A
:10159000A9FE6D4B1B8818460FF06AFCFB88023BC6
:1015A00098B2644B1B88043399B2FB8803339AB218
:1015B000604B1B8804339BB20EF094FE604B18887E
:1015C0005D4B1B88043B99B25E4B1A885A4B1B88B3
:1015D000043B9BB20EF086FE564B1B880633FB8203
:1015E0001BE0FA88FB8A1046194600F0EDF8034626
:1015F000BB82FA88FB8A104619460EF015FB03469B
:10160000012B07D0F988FA8ABB8A084611461A4688
:101610000EF052FEFB8A0133FB82FA8A464B1B888E
:10162000093B9A42DDDB82E07B79032B18D1464BE4
:101630001B8818460FF01CFC07F1120007F110017F
:1016400007F10E0207F10C030EF01AFB0346012B03
:101650006DD0788A398AFA89BB890EF043FE66E03C
:101660004FF478400FF004FCFB88023B98B2324BF9
:101670001B88053B99B2FB8803339AB22E4B1B881B
:10168000053B9BB20EF02EFEFB88023B98B2294B25
:101690001B88053399B2FB8803339AB2254B1B880C
:1016A00005339BB20EF01EFEFB88023B98B2224B24
:1016B0001B88043B99B2FB8803339AB21E4B1B88EC
:1016C000043B9BB20EF00EFEFB88023B98B2194B16
:1016D0001B88043399B2FB8803339AB2154B1B88DD
:1016E00004339BB20EF0FEFD48F671400FF0C0FBD4
:1016F000104B1B880633FB8213E0FA88FB8A1046E6
:1017000019460EF091FA0346012B07D0FB8A0433E9
:101710009BB2F888F98AFA880EF0E4FDFB8A0A3356
:10172000FB82FA8A044B1B880A3B9A42E5DB183796
:10173000BD4680BD600000205E0000204E000020FD
:101740005A0000205C000020E627002080B500AF92
:10175000164B5B78DBB2002B15D0144B1B78DBB239
:10176000022B0CD001201249FFF706FD0F4B9B788E
:10177000DBB2012B03D901200E49FFF7FDFC01204C
:101780000D49FFF7CFFD0D4B9B79DBB2012B0BD140
:101790000B4B1B8818460121FFF7BCFE094B1B8829
:1017A00018460121FFF7B6FE80BD00BF00020020F1
:1017B000CC000020DC000020EC0000201002002003
:1017C0008C2700208E27002080B483B000AF024613
:1017D0000B46FA80BB802E4B5B88BA889A4204D0B5
:1017E0002B4B1B88FA889A4202D1294B1B8949E06E
:1017F000BB88A3F11401274B83FB01235A10CB179D
:10180000D21A13469B001344CA1A002A14D1FA882C
:10181000214B1B78D11A214B83FB0123DA10CB1704
:10182000D21A13469B0013449A001344CA1A002A82
:1018300002D1174B1B8925E0BB88A3F11401174B7C
:1018400083FB0123DA10CB17D21A13469B001344F3
:101850009A001344CA1A002A12D1FA880E4B1B7838
:10186000D11A0C4B83FB01235A10CB17D21A134603
:101870009B001344CA1A002A02D1054B1B8901E0C0
:10188000074B1B8818460C37BD465DF8047B704734
:101890003800002067666666482000201F85EB51EF
:1018A000E627002080B584B000AF0346FB80FB88AC
:1018B00018466FF0130108F019F90346BB810023A5
:1018C000FB730BE0FA7B084B53F82220BB891046D0
:1018D000194600F00BF8FB7B0133FB73FB7B062BF7
:1018E000F0D91037BD4680BD0000002080B485B01F
:1018F00000AF78600B467B807A68104B9A4204D127
:101900007B68DB7A013BDBB201E07B68DB7ABB738F
:101910000023FB7309E0FA7B7B68043253F8223022
:101920007A881A81FB7B0133FB73FA7BBB7B9A427B
:10193000F1D91437BD465DF8047B7047B82100200B
:1019400080B483B000AF7860034B7A681A600C37BC
:10195000BD465DF8047B7047E0270020B0B586B037
:1019600002AF78607B681B7A012B25D17B681888D1
:101970007B6859887B689A887B68DB887C68647A96
:101980000025009501940EF071F87B681B880233E6
:1019900098B27B685B88023399B27B689B88023B74
:1019A0009AB27B68DB88023B9BB21D4C2488009472
:1019B0000FF0A2FF05F006F97B681B6D002B03D02A
:1019C0007B681B6D012098470023FB730BE0FA7BBB
:1019D0007B68043253F822301846002110F08EF84C
:1019E000FB7B0133FB737B68DB7AFA7B9A42EED98F
:1019F0000C4B1B687A689A420FD17B681B7B1A4696
:101A00007B68043253F822301846FFF799FF064BE3
:101A10001B681846012110F071F81037BD46B0BDA3
:101A2000E62700201C000020E027002080B584B0BD
:101A300000AF786039607A681A4B9A4204D17B68AB
:101A4000DB7A013BDBB201E07B68DB7ABB7300230E
:101A5000FB7313E0FA7B7B68043253F822203B6867
:101A60009A4208D0FA7B7B68043253F82230184639
:101A7000002110F043F8FB7B0133FB73FA7BBB7B47
:101A80009A42E7D93B68002B08D03868FFF758FF27
:101A9000054B1B681846012110F030F81037BD4681
:101AA00080BD00BFB8210020E027002090B585B0A0
:101AB00002AF78607B681B7A012B17D17B6818888E
:101AC0007B6859887B689A887B68DB880D4C248802
:101AD00000940FF011FF7B685B7A18460EF03AF81D
:101AE0000948012110F0AEF905F06CF87B681B6D18
:101AF000002B03D07B681B6D002098470C37BD4638
:101B000090BD00BFE62700203800002080B500AF60
:101B1000564B1B689A7B564B1B789A4206D1534B07
:101B20001B681A7B0132D2B21A730CE04F4B1B6850
:101B3000DA7B4F4B1B789A4205D14C4B1B681A7BC2
:101B4000013AD2B21A73494B1B681B7BFF2B06D19B
:101B5000464B1B68454A1268D27A1A733DE0434BE4
:101B60001B681A7B414B1B68DB7A9A4235D93F4B85
:101B70001B683E4A1268927A1A733C4B1B685B7B67
:101B8000002B2AD0394B1B685B7B012B05D1374BCF
:101B90001B681846FFF78AFF0AE0344B1B685B7B23
:101BA000022B05D1334B1B68184600210FF0A6FF0E
:101BB000314800F06BF82D4B1B682C4A1268127BE1
:101BC000043253F822301846FFF7BAFE294B1B683F
:101BD000184601210FF092FF46E0244B1B681A7B48
:101BE000264B1B789A4225D0254BDB79DBB2012BA3
:101BF00001D100F003F91F4B1A68224B9A4203D11E
:101C00000020FEF78DFE05E01A4B1B6818460021E8
:101C10000FF074FF154B1B68144A1268127B0432D4
:101C200053F822301846FFF78BFE104B1B681A7BC7
:101C3000124B1A70144B5B7ADBB2002B01D000F010
:101C400043FB0C4B1B685B6998470A4B1A680D4BAA
:101C50009A4203D10120FEF763FE05E0054B1B68A5
:101C6000184601210FF04AFF80BD00BF1C00002074
:101C700088290020E0270020B821002070290020BA
:101C800044000020A02100201002002080B483B076
:101C900000AF7860034B7A681A600C37BD465DF878
:101CA000047B70471C00002090B585B002AF03464E
:101CB0003960FB71254BDB79DBB2012B00D142E0AF
:101CC000234B1B7D012B01D100F01CFB214B93F812
:101CD0006030002B03D01D4BBD225A8002E01B4B0D
:101CE000CB225A80194BFA791A71184B0122DA71FA
:101CF000FB794FF4807292FBF3F3DAB2134B9A71D3
:101D0000154B3A681A60114B1B889BB2013B98B285
:101D10000E4B5B8899B20D4B1B889AB20B4B1B790B
:101D2000DBB213449AB20D4B1B88063B9BB20024D6
:101D30000094012401940DF099FE04F043FFFB7917
:101D4000184600F00DF80C37BD4690BD4400002049
:101D50002000002068000020742900205E00002080
:101D600090B585B000AF0346FB710023FB732BE0F9
:101D70001A4B1A68FB7B1A498979C9B201FB03F334
:101D80005B0013441B8818460FF072F8144B1B8835
:101D90009AB2FB7B9BB2134498B2114B5B8899B209
:101DA0000F4B1B889AB2FB7B9BB213449AB20C4B2D
:101DB0005B889CB20A4B5B79DBB223449BB20EF08A
:101DC00091FAFB7B0133FB73FA7BFB799A42CFD309
:101DD000034B0122DA711437BD4690BD74290020EF
:101DE0004400002080B400AF034BDB79DBB218461F
:101DF000BD465DF8047B70474400002090B583B079
:101E000002AF1D4BDB79DBB2012B00D030E01A4B67
:101E10000022DA7101200DF09DFE184B1B88184638
:101E20000FF026F8144B1B889BB2013B98B2124B63
:101E30005B889BB2013B99B20F4B1B889AB20E4B49
:101E40001B79DBB213449AB20B4B5B889CB20A4BF2
:101E50005B79DBB223449BB20024009400240194FC
:101E60000EF09CFD064801210FF0ECFF04F0AAFEE5
:101E70000437BD4690BD00BF44000020E627002087
:101E80003800002090B585B000AF03463960FB8074
:101E9000304B9B79DBB2FA8802FB03F3FB812D4BBD
:101EA000DB79DBB2012B05D12A4B1B79DBB2FA8837
:101EB0009A4200D34AE0284B1A68FB895B0013441E
:101EC0001B8818460EF0D4FF224B1B889AB2234B76
:101ED0001B88134498B21F4B5B8899B21D4B1B881B
:101EE0009AB21E4B1B8813449AB21A4B5B889CB261
:101EF000184B5B79DBB223449BB20EF0F3F9164B1F
:101F00001A68FB895B0013441A883B681A8000201A
:101F10000EF0AEFF0F4B1B889AB2FB88134498B2A9
:101F20000C4B5B8899B20B4B1B889AB2FB8813440D
:101F30009AB2084B5B889CB2064B5B79DBB22344B8
:101F40009BB20EF0CFF9054BFA881A801437BD46C4
:101F500090BD00BF4400002074290020F22700201B
:101F600090B587B002AF0346FB712F4B1B883D3BFA
:101F7000FB812E4B1B88213BBB812B4B1B88013BDC
:101F80007B812A4B1B88063B3B81294B9B79DBB22B
:101F9000002B00D044E0FB79012B29D1254B1A6896
:101FA000254B9A4224D0FB89013B98B23B890133EF
:101FB0009BB2B9897A89002400940B2401940DF016
:101FC00055FD0346002B12D004F0FCFD0AF098FDED
:101FD00041F2A4000EF04CFFF889B9897A893B8957
:101FE00000240094002401940EF0D8FC15E014E0C5
:101FF0000B200DF0AFFD0346002B0ED00F4B1C88BD
:10200000F889B9897A893B8900940FF075FC0C48EE
:1020100001210FF017FF04F0D5FD0A4BFA791A7071
:102020001437BD4690BD00BF5C0000205E0000205C
:1020300010020020AC20002074200020E6270020A1
:10204000380000201229002080B483B000AF03467E
:102050003960FB71FB79012B0BD10F4B1B78002BE7
:1020600007D13B681A780D4B1A700B4B01221A707E
:102070000DE0FB79002B0AD1074B1B78012B06D111
:10208000064B1A783B681A70034B00221A700C3703
:10209000BD465DF8047B7047F4270020F52700203B
:1020A00080B400AF104BDB79DBB2012B0CD10E4BAF
:1020B0001B7ADBB2002B03D10C4B0D4A1A610FE0E7
:1020C0000A4B0C4A1A610BE0074B1B7ADBB2002B60
:1020D00003D1064B084A1A6102E0044B074A1A6111
:1020E000BD465DF8047B7047100200207C23002071
:1020F00024510108305101083C51010844510108A4
:1021000098B500AF5C4B1B785A005C4B33F812302B
:102110001846022107F0EAFC03461A46584B1A807B
:10212000584B1B785A00554B33F812301846022191
:1021300007F0DCFC03461A46534B1A80534B1B78BE
:102140005A004E4B33F812301846FFF7ABFB504B9A
:102150005C69494B1B785A00484B33F812301846DB
:102160006FF0170107F0C2FC03462381484B1C6B3C
:10217000414B1B785A00414B33F8123018466FF030
:10218000170107F0B3FC03462381414B9C693D4B8B
:102190001B785A00394B33F8123018466FF017018C
:1021A00007F0A4FC03462381394B5C6B354B1B784D
:1021B0005A00324B33F8123018466FF0170107F00F
:1021C00095FC03462381324B5B69324A12785100F9
:1021D000314A32F811209A812D4B1B6B2D4A12780F
:1021E00051002D4A32F811209A81294B9B692B4AC4
:1021F00012785100284A32F811209A81244B5B6BE7
:10220000264A12785100244A32F811209A81244B30
:102210001B785A00204B33F81220224B1A81224B94
:102220001B78002B0CD01A4BD9691F4B1B785A1EF8
:1022300013469B0013445B001C4A13440B610BE0E4
:10224000134BD9691A4B1B781A4613469B0013444B
:102250005B00184A13440B61FFF722FF164B5B7AB1
:10226000DBB2012B03D1154B154A1A6102E0134B67
:10227000144A1A6198BD00BF50000020D0670108C1
:10228000540800205100002050100020520000206F
:10229000B821002054000020D0690108550000201A
:1022A00053000020380000202E2800204050010854
:1022B0002D2800206C4F010810020020642300200C
:1022C0004C5101085451010880B500AF064B012262
:1022D0001A80064844F6206100F032FC03480121D0
:1022E00000F0B4FB80BD00BF58240020000800406F
:1022F00080B500AF0248002100F0A8FB80BD00BF00
:102300000008004090B583B002AF144B1B88013326
:1023100098B2134B5988124B9B8805339AB2104BD5
:10232000DB88104C248800940FF0E6FA0A200DF0A8
:1023300011FC0D4801210FF085FD04F043FC0B4812
:102340000021322212F014FD054B00221A61044BC9
:1023500000221A750437BD4690BD00BF5A00002008
:1023600020000020E627002038000020AC270020B5
:1023700090B585B002AF7860364B93F86030002B93
:1023800006D1354BCE225A80334BDC22DA8005E071
:10239000314BBA225A80304BC822DA802E4B1B7D3B
:1023A000012B01D1FFF7AEFF2B4B1A882A4B9A80E5
:1023B000786812F0ABFD0346284879681A4612F097
:1023C00061FC254B9B68264819460DF051FF254BB3
:1023D0001B88013398B2204B59881F4B9A881E4B9B
:1023E000DB88002400940A2401940DF03FFB04F0E4
:1023F000E9FB1C4B1B88013398B2174B5988164BCD
:102400009B8805339AB2144BDB88174C24880094C0
:102410000FF072FA104B19880F4B5A880E4B9B68BD
:102420000D48808900900846114601220DF014FFE6
:1024300000F0F8F80246084B1A61074B1A69064B80
:102440009B7B1A44044B1A61034B01221A750C370B
:10245000BD4690BD6800002020000020AC27002071
:10246000240000205A000020E62700202DE9F04338
:102470008BB000AFF860B9601346FB716B461E4627
:10248000F9790B46013B7B61CAB24FF000034FEA7A
:10249000C30949EA52794FEAC208CAB24FF00003B1
:1024A000DD0045EA5275D4000B460733DB08DB003C
:1024B000ADEB030D6B4600333B610123BB61002391
:1024C0007B6208E0BA6913469B0013445B00BB6162
:1024D0007B6A01337B62FB795A1C7B6A9A42F1DC8E
:1024E000BB695A1EFB689A4202D2BB69013BFB6082
:1024F000FB79013B7B623AE03A697B6A1344002234
:102500001A700123FB6100233B6208E0FA6913465D
:102510009B0013445B00FB613B6A01333B623A6AF8
:102520007B6A9A42F2DB0DE0FB69FA68D31AFB6022
:102530003A697B6A13441B780133DAB239697B6AE2
:102540000B441A70FA69FB689A42EDD93A697B6AC2
:1025500013441B78184600F013F803461A46BB686C
:102560001A70BB680133BB607B6A013B7B627B6A8C
:10257000002BC1DAB5462C37BD46BDE8F08300BF5D
:1025800080B483B000AF0346FB71FB793033DBB21C
:1025900018460C37BD465DF8047B704780B483B0A5
:1025A00000AF02460B46FA807B717B79002B08D086
:1025B0000B4B0B4A128891B2FA880A4392B21A80E6
:1025C00009E0074B064A128891B2FA88D24392B2C8
:1025D0000A4092B21A800C37BD465DF8047B704702
:1025E0000028004080B400AF054B054A928892B2A3
:1025F00042F0100292B29A80BD465DF8047B7047AB
:102600000028004080B400AF054B054A928892B282
:1026100022F0100292B29A80BD465DF8047B7047AA
:102620000028004080B483B000AF0023FB80074B3C
:102630009B8BFB80054B1B8B9BB21A04FB881343BF
:1026400018460C37BD465DF8047B704700280040F3
:1026500080B582B000AF7860FFF7C4FF064B7A68A0
:10266000120C92B21A83044B7A6892B29A83FFF7E3
:10267000C9FF0837BD4680BD0028004080B582B044
:1026800000AF7860FFF7AEFF074B7A6802F4702264
:10269000120C92B21A81044B7A6892B29A81FFF7B7
:1026A000B1FF0837BD4680BD0028004080B400AFB0
:1026B00000BF054B9B889BB203F02003002BF8D092
:1026C000BD465DF8047B70470028004080B400AF31
:1026D000094B094A928892B222F0080292B29A807B
:1026E00000BF054B9B889BB203F00803002BF8D07A
:1026F000BD465DF8047B70470028004080B485B07B
:1027000000AF0346FB800023FB730F4B9B889BB2FB
:10271000DAB2FB88DBB21340FB730B4B1B889AB217
:10272000FB8813409BB2002B05D0FB7B002B02D013
:102730000123FB7301E00023FB73FB7B1846143776
:10274000BD465DF8047B70470028004080B483B02C
:1027500000AF0346FB80074B064A928891B2FA8885
:10276000D24392B20A4092B29A800C37BD465DF8CD
:10277000047B70470028004080B485B000AF7860CB
:1027800039600023FB817B681B88FB817A682E4BB4
:102790009A4213D07A682D4B9A420FD07B68B3F1DE
:1027A000804F0BD07A682A4B9A4207D07A68294B1F
:1027B0009A4203D07A68284B9A4208D1FB8923F0C9
:1027C0007003FB813B685A88FB891343FB817A685D
:1027D000224B9A420CD07A68214B9A4208D0FB894E
:1027E00023F44073FB813B68DA88FB891343FB8148
:1027F0007B68FA891A803B689A887B689A853B686F
:102800001A887B681A857A680F4B9A420FD07A68CB
:102810000E4B9A420BD07A68124B9A4207D07A68D4
:10282000114B9A4203D07A68104B9A4204D13B680C
:102830001B7A1A467B681A867B6801229A821437B3
:10284000BD465DF8047B7047002C01400034014018
:102850000004004000080040000C00400010004050
:102860000014004000400140004401400048014085
:1028700080B485B000AF7860396000237B8100238D
:10288000FB810023BB817B681B8C9BB223F480738C
:102890009AB27B681A847B681B8CFB817B689B885F
:1028A000BB817B689B8B7B817B8923F070037B8161
:1028B0007B8923F003037B813B681A887B89134360
:1028C0007B81FB8923F40073FB813B681B891B021E
:1028D0009AB2FB891343FB813B685B881B029AB267
:1028E000FB891343FB817A68224B9A4203D07A68B2
:1028F000214B9A422BD1FB8923F40063FB813B6877
:102900005B891B029AB2FB891343FB81FB8923F489
:102910008063FB813B689B881B029AB2FB8913434F
:10292000FB81BB8923F48053BB81BB8923F4005313
:10293000BB813B689B891B019AB2BB891343BB8156
:102940003B68DB891B019AB2BB891343BB817B685F
:10295000BA899A807B687A899A833B68DA887B682F
:102960009A877B68FA891A841437BD465DF8047B20
:10297000704700BF002C01400034014080B485B096
:1029800000AF786039600023BB8100237B81002386
:10299000FB817B681B8C9BB223F480539AB27B68CB
:1029A0001A847B681B8C7B817B689B88FB817B689E
:1029B0009B8BBB81BB8923F4E043BB81BB8923F4A0
:1029C0004073BB813B681B881B029AB2BB891343CF
:1029D000BB817B8923F400537B813B681B891B03EC
:1029E0009AB27B8913437B813B685B881B039AB255
:1029F0007B8913437B817A68124B9A4203D07A68B1
:102A0000114B9A420AD1FB8923F48043FB813B6836
:102A10009B899B019AB2FB891343FB817B68FA89EE
:102A20009A807B68BA899A833B68DA887B68A3F8C6
:102A300040207B687A891A841437BD465DF8047B90
:102A4000704700BF002C01400034014080B483B0C7
:102A500000AF78600B46FB70FB78002B08D07B68DA
:102A60001B889BB243F001039AB27B681A8007E08F
:102A70007B681B889BB223F001039AB27B681A80A3
:102A80000C37BD465DF8047B704700BF80B483B04F
:102A900000AF78600B46FB70FB78002B08D07B689A
:102AA0001B889BB243F080039AB27B681A8007E0D0
:102AB0007B681B889BB223F080039AB27B681A80E4
:102AC0000C37BD465DF8047B704700BF80B485B00D
:102AD00000AF78600B467B800023FB817B689B8B7B
:102AE000FB81FB8923F00803FB81FA897B88134370
:102AF000FB817B68FA899A831437BD465DF8047BB5
:102B0000704700BF80B485B000AF78600B467B8013
:102B10000023FB817B689B8BFB81FB8923F4006393
:102B2000FB817B881B029AB2FB891343FB817B6884
:102B3000FA899A831437BD465DF8047B704700BF5D
:102B400080B483B000AF78600B467B807B687A8866
:102B50009A850C37BD465DF8047B704780B485B01C
:102B600000AF78600B467B800023FB730023BB81A2
:102B700000237B817B681B8A9AB27B881340BB81D0
:102B80007B689B899AB27B8813407B81BB89002B31
:102B900005D07B89002B02D00123FB7301E00023C9
:102BA000FB73FB7B18461437BD465DF8047B70470A
:102BB00080B582B000AF0346FB71FB79012B03D1D6
:102BC0000020FDF735FC02E00120FDF731FC08375D
:102BD000BD4680BD80B483B000AF7860034B7A6897
:102BE0001A600C37BD465DF8047B7047FC0000207E
:102BF00080B500AF0C4B1B780F2B00D013E00B4BB4
:102C000093F86030002B04D1084B012283F8602038
:102C100003E0064B002283F86020044B93F86030F9
:102C2000184600F0FFFA80BD8829002068000020C7
:102C300080B582B000AF0023FB710020FDF7F4FCEB
:102C400000202749FEF76EFB264B5B78DBB2002B9A
:102C500038D0254B1B781D2B0DD1244B1B785A1CCB
:102C6000D1B2224A1170092B02D90523FB7113E05E
:102C70000123FB7110E01C4B1B781E2B0CD11B4B4E
:102C80001B785A1CD1B2194A1170092B02D9FB23A7
:102C9000FB7101E0FF23FB71154B5B889AB2104B6F
:102CA0009A800F4B1A6897F907301A440C4B1A6038
:102CB0000120FDF7B9FC01200949FEF733FB022092
:102CC00000F004FB074BDB681B69054A1168094AE1
:102CD00012888A1A104698470837BD4680BD00BF43
:102CE000EC00002000020020882900206C28002031
:102CF0001C0200205A00002080B500AF0B4B5B780F
:102D0000DBB2002B0BD0094B1B78DBB2022B06D0B9
:102D10000748FEF715FE074800F03CF804E0064BB4
:102D20001B6848F671425A8180BD00BF0002002036
:102D300048010020CC000020E027002080B500AF33
:102D4000114B5B78DBB2002B18D00F4B1B78DBB23A
:102D5000022B13D00C4B9B78DBB2022B04D00A4B16
:102D60009B78DBB2032B08D1084B1B684EF6A032D0
:102D70005A81074800F00EF805E004E0034B1B6899
:102D800048F671425A8180BD00020020E0270020F1
:102D9000DC00002080B584B000AF7860134B1B7856
:102DA0001D2B02D10123FB7307E0104B1B781E2B58
:102DB00002D1FF23FB7300E015E00D4B1B785A1C7A
:102DC000D1B20B4A1170092B05D9FB7B1A46920030
:102DD0001344DBB2FB7397F90F309BB21BB27868D8
:102DE000194600F007F81037BD4680BD882900203D
:102DF0006C28002080B582B000AF78600B467B80E5
:102E00007868FFF7E7FE1F4B1A881E4B1B880020CF
:102E100011461A46FEF7D6F87B681A68B7F90230F1
:102E20001A447B681A607B681A68174B1B880A3340
:102E30009A4206DA144B1B8803F10A027B681A6077
:102E40000CE07B681A68114B1B880A3B9A4205DD2F
:102E50000E4B1B88A3F10A027B681A60094B1B8882
:102E6000012019464FF47842FEF7ACF8FEF76CF8F3
:102E7000022000F02BFA064BDB681B6898470837E6
:102E8000BD4680BD4C000020600000205E00002098
:102E90000002002080B500AF344B1B781D2B0CD1F5
:102EA000334B9B78DBB2062B07D8314B9B78DBB2D8
:102EB0000133DAB22E4B9A7011E02C4B1B781E2B8B
:102EC0000CD12B4B9B78DBB2002B07D0284B9B7887
:102ED000DBB2013BDAB2264B9A7000E044E0254BAE
:102EE0001B68234A9278D2B21146234A52F8212015
:102EF0001A611F4B9B78DBB2032B2ED81F4B1A880D
:102F00001E4B1B88002011461A46FEF75BF8184B33
:102F10009B78DBB2022B04D0154B9B78DBB2032BE2
:102F200014D1174B1B68A3F11E02164B1A60154BE8
:102F30001A68154B1B8805339A4204DA124B1B881A
:102F40005A1D104B1A60114B0D4A1A60012048F2AD
:102F500010414FF47842FEF735F8022000F0B6F940
:102F6000034BDB681B68984780BD00BF88290020A1
:102F700000020020E0270020680000204C00002014
:102F8000CC000020DC00002060000020FC000020BD
:102F900080B500AF504B1B78DBB2022B0ED14F4BEC
:102FA0001B780F2B0AD14E4800210EF0A7FD4D488B
:102FB000FEF76CFE4B48FEF7D1FC8CE0474B1B78CC
:102FC0001E2B0CD1444B1B78DBB2002B07D0424B9D
:102FD0001B78DBB2013BDAB23F4B1A7011E03F4B7A
:102FE0001B781D2B0CD13C4B1B78DBB2012B07D877
:102FF000394B1B78DBB20133DAB2374B1A7000E081
:1030000069E0394B1A88384B1B88002011461A4654
:10301000FDF7D8FF304B1B78DBB2002B04D02E4BD2
:103020001B78DBB2012B2BD12B4B5B78DBB2002B57
:1030300026D0294B1B78DBB2002B0BD12B4B9B7876
:103040001A462B4B1A60294B9B78A3F11E02294B81
:103050001A600AE0284B9B781A46254B1A60264BCB
:103060009B78A3F11E02234B1A601B4B00229A701F
:10307000012048F210414FF47842FDF7A3FF08E029
:103080001B4B00221A731B4B00221A73124B042293
:103090009A70114B1B78DBB21A4613469B001344FF
:1030A0005B00164A1A440E4B1A610B4B9B78DBB23D
:1030B0001A46134B53F82220124B1A611148002173
:1030C0000EF01CFD022000F001F9FDF73DFF024B60
:1030D000DB681B68984780BD00020020882900201B
:1030E00078010020AC0300204C0000205408002090
:1030F000CC000020DC0000205010002060510108AE
:10310000680000206001002080B500AF3A4B1B78BA
:103110000F2B3AD1394B1B78DBB2022B24D0374B23
:103120009B78DBB2022B04D0344B9B78DBB2032BB1
:1031300010D1334B1A68334B9A420BD1304B324A81
:103140001A60324B1B88012019464FF47842FDF774
:1031500039FF50E02A4B2B4A1A60002048F21041F8
:103160004FF47842FDF72EFF0EF004F8284B1B6851
:103170004EF6A0325A81264B1B68184601210EF0EC
:10318000BDFC244B244A1A6035E01B4B1B78172BDF
:103190000CD11B4B1B681B685A1E204B1B880A3B1B
:1031A0009A4203DA144B1D221A7012E0124B1B785C
:1031B0001B2B0BD1124B1B681A68194B1B88013350
:1031C0009A4203DD0C4B1E221A7002E0FFF730FD1D
:1031D00011E00A4B1B78DBB2022B0CD0084B1B68AA
:1031E0001846FFF7F7FC064B1B681846FFF7D2FDA1
:1031F000022000F06BF880BD88290020000200202A
:10320000FC000020CC000020DC0000204C0000204E
:10321000E0270020280200200D1B00085E0000208F
:103220006000002090B587B002AF0346FB71214BD0
:103230001B880133FB81204B1B88143BBB811F4B38
:103240001B78012B04D11E4B1B883E3B9BB203E035
:103250001B4B1B88013B9BB27B81174B1B88063B9A
:103260003B81184B1C88F889B9897A893B8900947D
:103270000EF042FBFB79012B0DD1F889B9897A89CF
:103280003B8900240094032401940CF0EFFB0120FF
:1032900000F01CF809E0FB79002B06D103200CF0AC
:1032A00059FC094801210EF0CDFD03F08BFC1437C9
:1032B000BD4690BD5A0000205E000020122900206B
:1032C0005C000020E62700203800002090B587B081
:1032D00002AF0346FB71714B93F86030012B40F055
:1032E000A781FB79022B0CD16C4B1A8C6B4B5B8C3E
:1032F0006B4909880091104619460022694B0CF071
:10330000ABFF694B1B78DBB2022B00F0E980664B08
:103310001B78DBB2002B03D1644B654A1A6002E0D4
:10332000624B644A1A605F4B634A92E8030018607C
:10333000043319805B4811F0E9FD0346FB735F4BD2
:103340001B68184611F004FA0446584B1B689B781A
:10335000184611F0F9F903462046194611F042F9D2
:103360000346BB60FB7B03F120024C4B1344043348
:10337000B86819460AF0EAFA4A4811F0C7FD034650
:1033800003F12002454B134404334D4A1068186082
:10339000444811F0BBFD034603F120023F4B1344A8
:1033A0000433484A106818603F4B9B78DBB2022B0D
:1033B00004D03D4B9B78DBB2032B22D1394811F06E
:1033C000A5FD0346FB73404B1B68184611F0C0F97E
:1033D0000446364B1B689B78184611F0B5F9034636
:1033E0002046194611F0FEF80346BB60FB7B03F153
:1033F00020022A4B13440433B86819460AF0A6FA8F
:103400000FE0284811F082FD034603F12002234B10
:10341000134404332D4A106818609188927999807A
:103420009A71204811F072FD034603F120021B4BF4
:1034300013440433264A1188927819809A701948E7
:1034400011F064FD034603F12002144B13440433CE
:10345000204A10681860134811F058FD0346FB73AA
:103460001D4B1B68184611F073F904461B4B1B8853
:10347000184611F069F903462046194611F0B2F8D2
:103480000346BB60FB7B03F12002044B134404336F
:10349000B86819460AF0E0FA93E000BF680000201F
:1034A000E62700208C000020000200207C2900205C
:1034B0005408002050100020F8510108CC000020D2
:1034C0000052010804520108DC00002008520108E3
:1034D0001052010814520108EC0000205A0000208C
:1034E000554B564A1A60544811F010FD034603F13B
:1034F0002002534B13441A1D524B1B78DBB210466B
:1035000051491A4603F058F94B4811F0FFFC0346A5
:1035100003F120024A4B134404334C4A10681860EC
:1035200012791A71444811F0F1FC034603F12002AC
:10353000434B13441A1D464B1B78DBB210464249DD
:103540001A4603F039F93C4811F0E0FC034603F158
:1035500020023B4B134404333E4A106818609288A3
:103560009A80354811F0D2FC034603F12002344B17
:1035700013441A1D384B1B78DBB2104632491A46E9
:1035800003F01AF92C4811F0C1FC034603F12002A4
:103590002B4B13440433314A1068186012791A71A6
:1035A000254811F0B3FC034603F12002244B1344D9
:1035B0001A1D2B4B1B78DBB2104623491A4603F029
:1035C000FBF81D4811F0A2FC0346FB731A4811F0EA
:1035D0009DFC034603F12002194B13440433214A96
:1035E0001188927819809A701F4B9B78DBB21A462B
:1035F000134B53F822301048194611F003FC0E48C3
:1036000011F084FC034603F120020D4B13440433F4
:10361000164A12881A800A4B1A8C094B5B8C48F2A6
:10362000F0710091104619460022034B0CF014FE75
:103630001437BD4690BD00BF8C000020434D3A00BA
:10364000680000201C2200201852010820520108A6
:1036500014220020285201082022002030520108A4
:103660001822002038520108000200203C520108B4
:1036700080B400AF034B1B681B0C1846BD465DF8B9
:10368000047B7047002004E080B400AF044B1B684B
:10369000C3F30B031846BD465DF8047B704700BFBB
:1036A000002004E080B500AF154B154A126842F0C7
:1036B00001021A60124A124B5968124B0B405360B8
:1036C0000F4A0F4B1B6823F0847323F4803313607D
:1036D0000B4B0B4A126822F480221A60084B084AEE
:1036E000526822F4FE025A60054B4FF41F029A60A2
:1036F00000F00CF8044B4FF000629A6080BD00BFF0
:10370000001002400000FFF800ED00E080B500AFBF
:1037100000F002F880BD00BF80B483B000AF00238A
:103720007B6000233B603A4B394A126842F4803296
:103730001A60374B1B6803F400333B607B6801332E
:103740007B603B68002B03D17B68B3F5A06FF0D1A1
:103750002F4B1B6803F40033002B02D001233B6086
:1037600001E000233B603B68012B4BD1294B294AE8
:10377000126842F010021A60264B264A126822F0A4
:1037800003021A60234B234A126842F002021A60B5
:103790001F4B1F4A52685A601D4B1D4A52685A609F
:1037A0001B4B1B4A526842F480625A60184B184AFD
:1037B000526822F47C125A60154B154A526842F442
:1037C000E8125A60124B124A126842F080721A6074
:1037D00000BF0F4B1B6803F00073002BF9D00C4B9C
:1037E0000B4A526822F003025A60094B084A526899
:1037F00042F002025A6000BF054B5B6803F00C0305
:10380000082BF9D10C37BD465DF8047B704700BF2B
:10381000001002400020024080B584B000AF786004
:1038200013460A467A807B7072B60023FB7311E060
:10383000FB7B7A681A44FB7B99B27B880B449BB272
:103840001046194600F0DCF80A2008F099FEFB7BD0
:103850000133FB73FA7B7B789A42E9D362B6103767
:10386000BD4680BD80B584B000AF786013460A467F
:103870007A807B7072B60023FB7311E0FB7B7A6861
:103880001A44FB7B99B27B880B449BB210461946C5
:1038900000F00EF80A2008F073FEFB7B0133FB7387
:1038A000FA7B7B789A42E9D362B61037BD4680BD79
:1038B00080B584B000AF78600B467B807B88FB735B
:1038C0007B881B0A9BB2BB73424B4FF420421A60A9
:1038D000414B00221A704148012108F06DFF0AE0B7
:1038E0003C4B1B68591E3B4A1160002B03D13C48DE
:1038F00000F060F96BE039483A4908F0D9FF034617
:10390000002BEDD03548A021002208F0B3FF0AE0DB
:10391000304B1B68591E2F4A1160002B03D13248CF
:1039200000F048F953E02D48304908F0C1FF034644
:10393000002BEDD0BB7B2948194608F07DFF0AE03B
:10394000244B1B68591E234A1160002B03D12848C1
:1039500000F030F93BE02148264908F0A9FF034672
:10396000002BEDD0FB7B1D48194608F065FF0AE0EF
:10397000184B1B68591E174A1160002B03D11E48B3
:1039800000F018F923E015481A4908F091FF0346A2
:10399000002BEDD07B681B781048194608F04CFFCF
:1039A0000AE00C4B1B68591E0A4A1160002B03D118
:1039B000124800F0FFF80AE008480E4908F078FFC6
:1039C0000346002BEDD00548012108F015FF103704
:1039D000BD4680BDF8010020F827002000540040BB
:1039E00040520108010003005C52010882000700F8
:1039F000785201088400070098520108B852010863
:103A000080B584B000AF78600B467B807B88FB7309
:103A10007B881B0A9BB2BB73594B4FF420421A6040
:103A20005848012108F0C8FE0AE0554B1B68591E92
:103A3000534A1160002B03D1534800F0BBF89BE0C0
:103A40005048524908F034FF0346002BEDD04D4852
:103A5000A021002208F00EFF0AE0494B1B68591E06
:103A6000474A1160002B03D1494800F0A3F883E0D6
:103A70004448484908F01CFF0346002BEDD0BB7BAF
:103A80004048194608F0D8FE0AE03D4B1B68591E15
:103A90003B4A1160002B03D13F4800F08BF86BE0EC
:103AA00038483E4908F004FF0346002BEDD0FB7B6D
:103AB0003448194608F0C0FE0AE0314B1B68591E15
:103AC0002F4A1160002B03D1354800F073F853E002
:103AD0002C48324908F0ECFE0346002BEDD0294873
:103AE000012108F069FE0AE0254B1B68591E244A93
:103AF0001160002B03D12B4800F05CF83CE021481A
:103B0000224908F0D5FE0346002BEDD01D48A02128
:103B1000012208F0AFFE0AE0194B1B68591E184A33
:103B20001160002B03D11A4800F044F824E0154836
:103B30001D4908F0BDFE0346002BEDD00AE0104BF6
:103B40001B68591E0E4A1160002B03D1174800F064
:103B500031F811E00B48164908F0AAFE0346002B85
:103B6000EDD0084808F078FE03461A467B681A70C4
:103B70000448012108F040FE1037BD4680BD00BF5B
:103B8000F8010020005400404052010801000300E9
:103B90005C52010882000700785201088400070087
:103BA00098520108D052010802000300F0520108A7
:103BB0004000030080B582B000AF78604FF47840D9
:103BC0000DF050F91420B42100227B680CF0E2FAC9
:103BD0004FF4FA7008F0D4FC00200DF043F91420E3
:103BE000B42100227B680CF0D5FA064801210EF0C2
:103BF00029F9054B1B780133DAB2034B1A700837E9
:103C0000BD4680BD38000020F827002080B483B076
:103C100000AF0346FB71FB79002B08D10E4B4FF030
:103C200000621A610D4B4FF480321A610EE00C4BAA
:103C30001B79012B03D1084B4FF400621A61094B29
:103C40001B79012B02D1054B01221A610C37BD46AD
:103C50005DF8047B704700BF00080140000C014084
:103C6000540800205010002080B584B000AF0246F8
:103C70000B46FA71BB71BA79374913465B0013449E
:103C80009B000B441B7903F00703FB73BA7932499D
:103C900013465B0013449B000B441B7923F07F0306
:103CA000BB73FB79002B17D12C4BBA791A70BB7BF5
:103CB000802B04D12A4B4FF080621A6103E0284B1D
:103CC0004FF480621A61274B1B78DBB223F00703A5
:103CD000DAB2244B1A701FE0FB79012B1AD1224B68
:103CE000BA791A70BB7B802B04D11D4B4FF0006258
:103CF0001A6103E01A4B4FF400621A61FB7BDB0090
:103D0000FB73184B1B78DBB223F03803DAB2154B88
:103D10001A7001E000231BE0124B1B78DAB2FB7B28
:103D20001343DAB20F4B1A700E4B5B889BB2DAB2B8
:103D30000C4B1B78DBB21046194604F055FCBA79DF
:103D4000054913465B0013449B000B4408331B6872
:103D500018461037BD4680BD98530108FC27002047
:103D60000010014054220020FD27002080B483B0C1
:103D700000AF0346FB71FB79002B02D1074B1B7888
:103D800006E0FB79012B02D1054B1B7800E0FF23F5
:103D900018460C37BD465DF8047B7047FC270020B1
:103DA000FD27002080B483B000AF0346FB71FA7991
:103DB000064913465B0013449B000B441B681846DE
:103DC0000C37BD465DF8047B704700BF985301086F
:103DD00080B483B000AF0346FB71FB79034AD35C28
:103DE00018460C37BD465DF8047B7047002800205C
:103DF00080B483B000AF02460B46FA71BB71FB7909
:103E0000FF2B0DD0FB79032B06D1084BBA791A7022
:103E1000064BBA795A7003E0FB79044AB979D15458
:103E20000C37BD465DF8047B704700BF00280020BA
:103E300080B582B000AF214B1B68DB781846FFF7D6
:103E400095FF0346FB711D4B1B68DB781846FFF797
:103E5000BFFF0346012B2CD1184B1B6806331846B5
:103E600000F02EF80346DAB2FB791344DBB2FB71A3
:103E700097F90720114B1B6893F8D8379A4218D04E
:103E800097F90730002B14DB0C4B1B68FA7983F889
:103E9000D8270A4B1B68DA78084B1B6893F8D83789
:103EA00010461946FFF7E0FE0A2008F069FB0123DF
:103EB00000E0002318460837BD4680BD7C2900205D
:103EC00080B485B000AF786081237B737F233B7320
:103ED0003223FB811AE07B681B7897F90D205BB2D7
:103EE0009A4203DA7B681B787B7309E07B681B7856
:103EF00097F90C205BB29A4202DD7B681B783B731A
:103F00007B6801337B60FB890133FB81FB89B3F55F
:103F1000AF7FE0D37A7B3B7BD31AFB7297F90D30EE
:103F2000782B07DC97F90C3013F1780F02DBFB7A62
:103F3000F02B01D9012305E0FB7A312B01D8FF23B7
:103F400000E000235BB218461437BD465DF8047BE1
:103F5000704700BF80B582B000AF02460B46FA71D1
:103F6000BB71FB79002B0ED1BB79022B05D1144A12
:103F7000137843F00403137013E0114A13786FF3BE
:103F8000820313700DE0BB79022B05D10C4A137824
:103F900043F00803137004E0094A13786FF3C30376
:103FA0001370074B5B889BB2DAB2054B1B78DBB210
:103FB0001046194604F018FB0837BD4680BD00BF07
:103FC0005022002080B582B000AF0346FB71FB7920
:103FD000012B0AD1104A1378022161F342031370B6
:103FE0000E4B4FF400525A6108E00B4A13786FF3FE
:103FF00042031370094B4FF400521A61064B5B8861
:104000009BB2DAB2044B1B78DBB21046194604F0BF
:10401000EBFA0837BD4680BD4C2200200008014065
:1040200080B483B000AF0346FB71044BFA791A6089
:104030000C37BD465DF8047B704700BF20000E4280
:1040400080B582B000AF114B7B60114B3B6007E045
:104050003B681A1D3A607A68111D796012681A600F
:104060003A680C4B9A42F3D30B480C494FF00002CC
:104070008842B8BF40F8042BFFF6FAAFFFF712FBF7
:1040800001F0B4F80837BD4680BD00BF3083010899
:1040900000000020AC270020AC270020203B00209F
:1040A00080B400AFFEE700BF80B489B000AF786095
:1040B00039600023FB6100233B610023BB610023C7
:1040C000FB6000237B610023BB603B68DB7803F06F
:1040D0000F03FB613B68DB7803F01003002B04D077
:1040E0003B689B78FA691343FB613B681B88DBB232
:1040F000002B44D07B681B687B610023BB6138E0E8
:10410000BB69012202FA03F3FB603B681B881A4675
:10411000FB6813403B613A69FB689A4226D1BB6950
:104120009B00FB60FB680F2202FA03F3BB60BB68D5
:10413000DB437A6913407B61FB68FA6902FA03F397
:104140007A6913437B613B68DB78282B05D1BB6917
:1041500001229A407B685A6108E03B68DB78482B73
:1041600004D1BB6901229A407B681A61BB690133A3
:10417000BB61BB69072BC3D97B687A691A603B684E
:104180001B88FF2B46D97B685B687B610023BB6182
:104190003AE0BB690833012202FA03F3FB603B6893
:1041A0001B881A46FB6813403B613A69FB689A42D8
:1041B00027D1BB699B00FB60FB680F2202FA03F367
:1041C000BB60BB68DB437A6913407B61FB68FA69BB
:1041D00002FA03F37A6913437B613B68DB78282B8F
:1041E00005D1BB69083301229A407B685A613B685C
:1041F000DB78482B05D1BB69083301229A407B68E4
:104200001A61BB690133BB61BB69072BC1D97B68EC
:104210007A695A602437BD465DF8047B704700BF59
:1042200080B485B000AF78600B467B800023FB73C1
:104230007B68DA687B881340002B02D00123FB7374
:1042400001E00023FB73FB7B18461437BD465DF885
:10425000047B704780B487B000AF78600B46FB707A
:1042600000233B610023FB6000237B610023BB60D4
:104270007B68002B03DA2E4BDB697B6102E02C4B61
:104280005B687B617B6803F470231B0CBB607B68FD
:104290009BB23B617B6803F44013B3F5401F0AD126
:1042A0007B6923F070637B61214B214A526822F0C5
:1042B00070625A6021E07B6803F48013002B0ED0FB
:1042C000BB68032202FA03F3FB60FB68DB437A69F5
:1042D00013407B617B6943F070637B610DE07B6819
:1042E0005B0D1B013A6902FA03F3DB437A69134061
:1042F0007B617B6943F070637B61FB78002B08D0A6
:104300007B685B0D1B013A6902FA03F37A69134378
:104310007B617B68002B03DA054B7A69DA6102E086
:10432000034B7A695A601C37BD465DF8047B7047C1
:104330000000014080B483B000AF0346FB71084B1E
:1043400097F907205209F97901F01F01012000FABD
:1043500001F143F822100C37BD465DF8047B70472D
:1043600000E100E080B483B000AF0346FB71094B6D
:1043700097F907205209F97901F01F01012000FA8D
:1043800001F1203243F822100C37BD465DF8047B62
:10439000704700BF00E100E080B500AF07F010FEFD
:1043A00080BD00BF80B500AF07F068FE002000F0C0
:1043B00057F84FF4C87000F06FF8244B5B889BB23D
:1043C000DAB2224B1B78DBB21046194604F00CF926
:1043D0001F4B5B889BB2DAB21C4B1B78DBB21046DA
:1043E000194604F001F91B4B5B889BB2DAB2194BFA
:1043F0001B78DBB21046194604F0F6F8164B5B88C2
:104400009BB2DAB2144B1B78DBB21046194604F0AB
:10441000EBF8124B5B889BB2DAB2104B1B78DBB225
:104420001046194604F0E0F800F02AF80346002B85
:1044300001D0012308E000F05BF80346B3F5C87F24
:1044400001D0022300E00023184680BD482200204E
:104450004C2200205022002054220020582200200C
:1044600080B582B000AF7860044B7A681A60034868
:1044700004F0FEF80837BD4680BD00BF28220020AA
:1044800080B500AF034804F015F9024B1B681846CD
:1044900080BD00BF2822002080B584B000AF7860C6
:1044A0007B68FB600E4B1B681B7AFB720D4B5B79C4
:1044B000DBB2012B01D1022300E00123BB720A4BC6
:1044C000DB689B68F97ABA7A78689847F860074B96
:1044D000FA681A60054804F0CBF81037BD4680BD75
:1044E000AC20002010020020000200203822002012
:1044F00090B583B000AF0C4B5B79DBB2012B01D1DF
:10450000022300E00123FB71084BDB68DC680848EC
:1045100004F0D0F80246FB7910461946A04703463E
:1045200018460C37BD4690BD100200200002002046
:104530003822002080B582B000AF0346FB71FB79C2
:10454000032B37D801A252F823F000BF5D450008C5
:1045500073450008894500089F4500081D4A1378E7
:104560006FF3000313701B4A13786FF3410313704A
:1045700021E0184A13786FF300031370154A13787B
:1045800043F00203137016E0124A137843F001035C
:104590001370104A13786FF3410313700BE00D4A48
:1045A000137843F0010313700A4A137843F00203AF
:1045B000137000E000BF074B5B889BB2DAB2054B7B
:1045C0001B78DBB21046194604F00EF80837BD46DA
:1045D00080BD00BF5022002080B483B000AF0346EE
:1045E0003960FB71104B00221A703A680F4B1A6049
:1045F0000F4B00229A84FB79012B08D10C4B0C4AFB
:10460000128892B242F0010292B21A8007E0084B7F
:10461000074A128892B222F0010292B21A800C3735
:10462000BD465DF8047B70470428002078290020EF
:10463000002C014080B483B000AF0346FB71044BF3
:10464000FA791A700C37BD465DF8047B704700BFDD
:104650000528002080B400AF034B1B78DBB218465E
:10466000BD465DF8047B70470528002080B582B008
:1046700000AF4FF47A737B60744B5B78FB70744BC4
:1046800001221A70734B5B79DBB21846FFF79AFC74
:104690006E4BDB681B6898476F4A137843F0400302
:1046A00013706D4B5B889BB2DAB26B4B1B78DBB23D
:1046B0001046194603F098FF684B1A68684B9A42F7
:1046C00005D00120FFF7A2FA0320FFF733FF0120F6
:1046D00007F056FF634A137843F001031370614BF0
:1046E0005B889BB2DAB25F4B1B78DBB2104619468F
:1046F00003F07AFF554BDB685B699847594A13789A
:1047000043F002031370574B5B889BB2DAB2554BF0
:104710001B78DBB21046194603F066FF012079686A
:10472000FFF75AFF3CE0504B1B78012B05D107F0F7
:1047300017FC0346012B00DD3DE04C4B1B78DBB240
:10474000012B2DD1414B5B78DBB2022B0BD13F4BC0
:1047500000225A703D4BDB681B689847444B4FF66C
:10476000E0721A8027E0424B4FF6FF721A80414BED
:104770001B88002B05D13E4B1B881846FCF76CFBB1
:1047800003E040F64100FCF767FB3A4B1B8883F0DF
:1047900001039AB2374B1A8001207968FFF71CFF9A
:1047A000354B9B6803F02003002B04D1284B1B786A
:1047B000DBB2002BB7D100200021FFF70DFF294B02
:1047C00000221A70274B5B889BB2DAB2254B1B780C
:1047D000DBB21046194603F007FF0020FFF716FA78
:1047E0000020FFF7A7FE1C4A13786FF3861313709F
:1047F000194B5B889BB2DAB2174B1B78DBB21046C1
:10480000194603F0F1FE114BFA785A70104B1B78E1
:10481000DBB2002B12D0154B1B78DBB2012B05D07D
:10482000FCF774FB0A4B02221A7007E0074B5B7817
:10483000DBB2022B02D1064B02221A70044B1B780A
:10484000DBB218460837BD4680BD00BF000200201D
:104850000528002010020020542200207C2900207E
:104860004C18002058220020322900200428002063
:10487000FE0100200A2800200010014080B582B00F
:1048800000AF0346FB71FB79002B05D10C4A13786E
:1048900043F01003137004E0094A13786FF3041314
:1048A0001370074B5B889BB2DAB2054B1B78DBB207
:1048B0001046194603F098FE0837BD4680BD00BF7C
:1048C0004822002080B582B000AF0346FB71FB791F
:1048D000012B16D1164A137843F008031370144BBA
:1048E0005B889BB2DAB2124B1B78DBB210461946DA
:1048F00003F07AFE0F2003F097FE012007F0A6FBDD
:1049000012E00B4A13786FF3C3031370084B5B88F4
:104910009BB2DAB2064B1B78DBB21046194603F0A5
:1049200063FE002007F092FB0837BD4680BD00BF44
:104930004822002080B582B000AF78600B46FB7043
:10494000FB781846FFF79AFF7B68002B04DC3B4B93
:104950005B78DBB2002B6DD07A686FF000439A422F
:1049600027D1374A137843F001031370344B5B8827
:104970009BB2DAB2324B1B78DBB21046194603F019
:1049800033FE304B40221A612E4B4FF480021A61E5
:104990002B4A13786FF300031370294B5B889BB28B
:1049A000DAB2274B1B78DBB21046194603F01CFE27
:1049B00040E0224B5B78DBB2002B0AD0224B9B6895
:1049C000002B03D07B6802337B6002E07B680433FA
:1049D0007B600120FFF776FF24E01A4B40221A612A
:1049E000184B40221A61174B4FF480021A61154B85
:1049F0004FF480021A61154B1A68154B9A4211D078
:104A0000114B9B68002B0DD00E4B40221A610D4BB1
:104A100040221A610B4B4FF480021A61094B4FF48C
:104A200080021A617B685A1E7A60002BD5DC002058
:104A3000FFF748FF0837BD4680BD00BF00020020D9
:104A40004C220020001001401C020020AC2000205D
:104A50007420002080B586B000AF00233B61784B06
:104A60005B79DBB2012B01D1022300E00123FB7350
:104A7000FFF73EFD0346734A1268127A02FB03F306
:104A8000FA7B02FB03F3BB606F4B1B881A466F4B2C
:104A90001B88D31A013B6B4A1268127A02FB03F29D
:104AA0006B4B1B681B7892FBF3F37B60694B5B8855
:104AB0009BB21BB2DB437A6802FB03F2BB681A4469
:104AC000FB7B92FBF3F33B611C20FFF74BFC0020C8
:104AD000FFF7F8FE6FF000400121FFF72BFF386968
:104AE0000121FFF727FF0120FFF7ECFE554B1A6865
:104AF000594B9A420DD1594B40221A61574B4022D3
:104B00001A61564B4FF480021A61544B4FF48002E5
:104B10001A617B687B614A4B5B79DBB2012B41D127
:104B20004E4B40221A614D4B40221A614C4B9B6800
:104B30001B0ADBB27F3BDBB2DB43DBB2DAB24949B3
:104B40007B690B449A717B69013B7B61434B4FF45A
:104B500080021A61414B4FF480021A61404B9B68FE
:104B60001B0ADBB27F3BDBB2DB43DBB2DAB23D498F
:104B70007B690B449A713B4A7B6913449B79DAB297
:104B8000394B1B78DBB2DBB2D31ADBB2DAB2354970
:104B90007B690B449A717B69013B7B617B69002BCC
:104BA000BEDC43E02D4B40221A612C4B40221A619F
:104BB0002B4B9B681B0ADBB27F3BDBB2DB43DBB2D8
:104BC000DAB228497B690B449A71244B4FF4800276
:104BD0001A61224B4FF480021A61214B9B681B0A19
:104BE000DBB27F3BDBB2DB43DBB2DAB21F497B696E
:104BF0000B449A71134B1A68174B9A4211D0154BFC
:104C00009B68002B0DD0154B40221A61134B40229C
:104C10001A61124B4FF480021A61104B4FF480025C
:104C20001A617B695A1E7A61002BBBDC0020FFF7FA
:104C300049FE1C20FFF77EFB1837BD4680BD00BF34
:104C400010020020AC2000205C0000205A00002050
:104C50005C2200201C020020742000200010014073
:104C6000000C0140540800200628002050100020AD
:104C700080B584B000AF02460B46FA71BB71844B1D
:104C80001B68FB72834B1B68BB72FB79022B7CD0C9
:104C9000814A13786FF3C7131370FB79002B07D188
:104CA0007E4BFB607C4A13786FF3000313700BE0BC
:104CB000FB79012B07D17A4BFB60774A137843F0DD
:104CC0000103137000E0E0E0764B1B78002B13D15A
:104CD000FB681B88DAB26E4B1B68DBB2D31ADBB2FF
:104CE0007F33FB72FB681B88DAB26A4B1B68DBB24E
:104CF000D31ADBB27F33BB72674A13786FF3820338
:104D00001370BB79032B00F2BD8001A252F823F08F
:104D1000214D00082F4D00083D4D00083D4D000875
:104D2000614BFF221A70614BFA7A1A7016E05E4BE3
:104D3000FA7A1A705D4B00221A700FE05A4BBA7A59
:104D40001A705A4BFA7A1A70BB79022B05D1524A63
:104D5000137843F004031370FFE700BF524B5B88E6
:104D60009BB2DAB2504B1B78DBB21046194603F007
:104D70003BFC4E4B5B889BB2DAB24C4B1B78DBB2F0
:104D80001046194603F030FC70E0FB79022B6CD121
:104D9000414A137843F080031370BB79043B032B23
:104DA00072D801A252F823F0B94D0008CF4D000887
:104DB000E54D0008FB4D0008374A137843F0040323
:104DC0001370354A13786FF38613137020E0324A5C
:104DD000137843F0040313702F4A137843F0400311
:104DE000137015E02C4A13786FF3820313702A4A6C
:104DF000137843F0400313700AE0274A13786FF3E7
:104E000082031370244A13786FF38613137000BF64
:104E1000274B5B889BB2DAB2254B1B78DBB210467E
:104E2000194603F0E1FB234B5B889BB2DAB2214BBE
:104E30001B78DBB21046194603F0D6FB1E4B5B888D
:104E40009BB2DAB21C4B1B78DBB21046194603F05A
:104E5000CBFB1A4B5B889BB2DAB2184B1B78DBB2E8
:104E60001046194603F0C0FB00E00EE00A4B5B88D9
:104E70009BB2DAB2084B1B78DBB21046194603F03E
:104E8000B3FB02E000BF00E000BF1037BD4680BDAD
:104E9000CC000020DC000020482200205608002022
:104EA00052100020322900200C2200201022002065
:104EB0001C22002020220020142200201822002082
:104EC00080B582B000AF13460246FA710A46BA7145
:104ED0007B71BB79002B05D0094A137843F002039C
:104EE000137004E0064A13786FF341031370FA79E4
:104EF0007B7910461946FFF7BBFE0837BD4680BDDB
:104F00004822002080B582B000AF0346FB71FB79D8
:104F1000012B0AD1114A137843F0200313700F4A72
:104F2000137843F08003137009E00C4A13786FF391
:104F300045131370094A13786FF3C7131370074BA7
:104F40005B889BB2DAB2054B1B78DBB21046194680
:104F500003F04AFB0837BD4680BD00BF4822002051
:104F600080B582B000AF0346FB71FB79012B05D100
:104F70000D4A137843F00103137004E00A4A1378D2
:104F80006FF300031370084B5B889BB2DAB2064BD9
:104F90001B78DBB21046194603F026FB034BFA7967
:104FA0001A700837BD4680BD48220020092800201D
:104FB00080B400AF034B1B781846BD465DF8047BF8
:104FC000704700BF0928002080B582B000AF0346BB
:104FD000FB71FB7903F00103D9B2094A137861F33D
:104FE000C7131370064B5B889BB2DAB2044B1B7875
:104FF000DBB21046194603F0F7FA0837BD4680BD0C
:105000005422002080B500AF074B5B889BB2DBB217
:10501000184603F009FB03461A46034B1A70024B6D
:105020001B78DBB2184680BD2422002080B500AF7B
:10503000074B1B78D9B2064B5B78DAB2044B9B78EE
:10504000DBB2084611461A46FFF73AFF80BD00BFA3
:105050000002002080B500AF002000210022FFF7F1
:105060002FFF80BD90B585B000AF786013460A462B
:10507000FA70BB707B68FB601A4B02225A60194BB6
:105080005B78DBB2002B24D0164B9C68FFF7F8F955
:10509000034603FB04F3FA7802FB03F2124BA3FB73
:1050A00002135A090F4B5A600E4B5B68012B02D852
:1050B0000C4B02225A600B4B9A680C4B1B681B78F6
:1050C000B2FBF3F37A68D21ABB78B2FBF3F3FB605E
:1050D00002E0FB680A33FB60FB6818461437BD46E4
:1050E00090BD00BF000200201F85EB515C22002014
:1050F00080B483B000AF78600B46FB700E4B5B78DA
:10510000DBB2002B0DD00C4B9A680C4B1B681B7844
:10511000F97801FB03F3B2FBF3F37A6813447B6085
:1051200002E07B680A3B7B607B6818460C37BD4613
:105130005DF8047B704700BF000200205C22002065
:1051400080B584B000AF7860114B1B68114A1268BB
:10515000127802FB03F3013BFB600F4B7A689A6005
:105160000D4B9B68002B03D10B4B01229A6007E08B
:10517000094B9A68FB689A4202D9074BFA689A6011
:10518000034B1B681846FFF787F91037BD4680BDF3
:10519000100200205C2200200002002080B582B0B6
:1051A00000AF114B5B687B6000237B8006E07B686F
:1051B000A3F57A737B607B8801337B807B68B3F5D2
:1051C0007A7FF4D87B68012B01D802237B607B882F
:1051D000002B03D07B88184607F0D2F9786807F0D7
:1051E0007FF90837BD4680BD0002002080B500AFC2
:1051F00072B600F06BFF09F0D9FE62B606F0B0FEA1
:105200000346002B13DD634806F020FE0346012B06
:105210000DD1604B1B78184608F0A0FE5D4B1B7843
:10522000184606F07DFE4FF0FF3006F0A7FE5A4B01
:105230001B78012B00F0AC80FCF788FA574BD3F8B1
:10524000F827564BD9781879000201435B791B0483
:105250001943002361F3170318469047504BD3F8C6
:10526000F8274F4BD9781879000201435B791B046A
:105270001943002361F3170318469047494B5B78A5
:10528000DBB2032B0CD1484B9B7ADBB2012B07D14D
:10529000FFF7E0F90346022B02D1002000F09EF850
:1052A000424B1B78FF2B08D0414B1B6898473F4B64
:1052B000FF221A703F4B1F221A703F4B1B78012BA5
:1052C00008D13E4B1B781846FBF78CFD3B4B002268
:1052D0001A7005E0394B1B780133DAB2374B1A707C
:1052E000374B1B78012B49D1364B1B785BB2002B17
:1052F00021DC354B5B79012B3DD0344B3C229A733A
:105300003348FDF735F8304B1B79DAB2314B1A7060
:10531000FDF788F902462C4B1A602B4B01225A717B
:10532000294B01221A71284B01229A710120012177
:10533000FBF770FC1FE0244B5B79012B14D1224B4F
:1053400000225A71214B01229A73FCF7DBFFFDF713
:1053500069F902461C4B1A601E4B1B78DAB21A4BD5
:105360001A71194B00229A71164B1B78DBB2184642
:105370000121FBF74FFC124B00221A70164B1B78D1
:10538000012B05D1FCF7BEFF134B00221A7035E745
:1053900034E700BF0C2800203229002054080020E8
:1053A0005010002000020020100200205B2400208A
:1053B00028020020882900200E2800200F28002025
:1053C0006B2800206A2800201828002020000020D8
:1053D00040540108142800206D28002080B582B0B8
:1053E00000AF0346FB71FB79002B0BD1154BDB792A
:1053F000DAB2154B1A70134B0122DA71134B144AAF
:105400001A610BE00F4B9B7ADBB2002B03D10E4BE2
:105410001A780C4BDA710D4B0E4A1A61094BFA7966
:105420009A720D4B1A68094B9A4204D10748012120
:105430000CF064FB03E0054800210CF05FFB08372B
:10544000BD4680BD100200202028002058210020E9
:10545000645401086C540108E027002090B585B021
:1054600000AF02460B46FA71BB710023BB730023E9
:105470007B73FB79FB73BFE0FB7B072B5DD9FB7B69
:10548000083B802242FA03F3BB735F4BDB681B7857
:10549000DAB2BB7B13407B737B7B002B2DD05A4B46
:1054A0009B681B78DAB2BB7B13407B737B7B002B42
:1054B00007D0FA7B554B043253F82230544A1A6114
:1054C00006E0FA7B514B043253F82230514A1A61FC
:1054D000FA7B4E4B043253F822304FF4F2721A81A9
:1054E000FA7B4A4B043253F822404FF4F270042105
:1054F00004F0FCFA034663817BE0FA7B434B043201
:1055000053F82230444A1A61FA7B404B043253F874
:105510002230424A126912891A81FA7B3B4B0432CB
:1055200053F822403D4B1B691B8918466FF001015F
:1055300004F0DCFA034663815BE0FB7B802242FAE5
:1055400003F3BB73304B5B681B78DAB2BB7B134051
:105550007B737B7B002B2DD02B4B1B681B78DAB227
:10556000BB7B13407B737B7B002B07D0FA7B274BE5
:10557000043253F822302A4A1A6106E0FA7B234BA0
:10558000043253F82230274A1A61FA7B1F4B043247
:1055900053F822304FF4F2721A81FA7B1B4B04321B
:1055A00053F822404FF4F270042104F09FFA0346AE
:1055B00063811EE0FA7B154B043253F82230164A01
:1055C0001A61FA7B114B043253F82230134A1269E4
:1055D00012891A81FA7B0D4B043253F822400F4B8B
:1055E0001B691B8918466FF0010104F07FFA03461E
:1055F0006381FB7B0133FB73FA7BBB799A427FF6B5
:105600003BAF1437BD4690BD00040020AC03002022
:10561000785401087C54010880540108B821002006
:10562000845401087054010880B582B000AF03466D
:10563000FB71FB79002B0FD100202249FCF704FD00
:10564000204B1B781846FCF78BFC1F4B93F86030FF
:105650001846FDF7E7FD31E001201A49FCF7F4FC9C
:105660000020FCF77DFC19480AF038FB49F2B240F3
:105670000BF0F8FB164B1B8801339AB2144B5B8876
:1056800014339BB2104619460122124B0AF082FDD8
:105690000F4B1B8801339AB20D4B5B88104619469D
:1056A00001220D4B0AF076FD0C480AF017FB002092
:1056B0000F21FFF7D3FE0120FDF7B4FD0837BD46EB
:1056C00080BD00BF1229002068000020F079010889
:1056D000AC030020885401088C540108D0720108E2
:1056E00080B582B000AF0023FB71914B1B780F2B6C
:1056F00016D1904B1B7B1A468E4B043253F8223046
:105700001846FCF71DF98C4B1B68184601210CF05C
:10571000F5F98A48FCF7CAF98648FCF7B7FA04E1BC
:10572000834B1B78172B6CD1844B1B7B072B34D9F5
:10573000824B1B7B083B802242FA03F3BB71804BF8
:10574000DB681B78DAB2BB791340FB71FB79002B65
:1057500018D17B4B9B687A4A92681278D2B2D1B248
:10576000BA79D243D2B20A40D2B2D2B21A70744BD2
:10577000DB68734AD2681278D1B2BA790A43D2B2DE
:105780001A70B8E06E4B9B686D4A92681278D1B27D
:10579000BA790A43D2B21A70ADE0684B1B7B802203
:1057A00042FA03F3BB71664B5B681B78DAB2BB79D4
:1057B0001340FB71FB79002B18D1614B1B68604AC9
:1057C00012681278D2B2D1B2BA79D243D2B20A40B8
:1057D000D2B2D2B21A705A4B5B68594A52681278E8
:1057E000D1B2BA790A43D2B21A7084E0544B1B6822
:1057F000534A12681278D1B2BA790A43D2B21A70F7
:1058000079E04B4B1B781B2B74D14C4B1B7B072B2C
:1058100038D94A4B1B7B083B802242FA03F3BB7109
:10582000474BDB681B78DAB2BB791340FB71FB791D
:10583000002B60D0424B9B681B78DAB2BB791340D7
:10584000FB71FB79002B0ED03D4B9B683C4A926864
:105850001278D2B2D1B2BA79D243D2B20A40D2B21D
:10586000D2B21A7047E0364BDB68354AD2681278FC
:10587000D2B2D1B2BA79D243D2B20A40D2B2D2B203
:105880001A7038E02D4B1B7B802242FA03F3BB7168
:105890002B4B5B681B78DAB2BB791340FB71FB7949
:1058A000002B28D0264B1B681B78DAB2BB7913403B
:1058B000FB71FB79002B0ED0214B1B68204A12682C
:1058C0001278D2B2D1B2BA79D243D2B20A40D2B2AD
:1058D000D2B21A700FE01A4B5B68194A52681278FC
:1058E000D2B2D1B2BA79D243D2B20A40D2B2D2B293
:1058F0001A7000E019E0114B1B7BFA2B03D90F4BF8
:105900000F221A7306E00D4B1B7B0F2B02D90B4B9A
:1059100000221A73094B1A7B084B1B7B1046194651
:10592000FFF79CFD0220FDF7D1FC0837BD4680BD86
:105930008829002090010020E0270020AC030020EF
:105940000004002080B483B000AF0346FB71084B15
:1059500097F907205209F97901F01F01012000FA97
:1059600001F143F822100C37BD465DF8047B704707
:1059700000E100E080B483B000AF0346FB71094B47
:1059800097F907205209F97901F01F01012000FA67
:1059900001F1203243F822100C37BD465DF8047B3C
:1059A000704700BF00E100E080B483B000AF034661
:1059B0003960FB7197F90730002B0BDA0D49FB7941
:1059C00003F00F03043B3A68D2B21201D2B20B4487
:1059D0001A7609E0084997F907303A68D2B21201FD
:1059E000D2B20B4483F800230C37BD465DF8047B2C
:1059F000704700BF00ED00E000E100E080B400AFC0
:105A0000BFF34F8F054A054BDB6803F4E061044B9D
:105A10000B43D360BFF34F8FFEE700BF00ED00E004
:105A20000400FA0580B582B000AF294B284A92697C
:105A300042F004029A61264B254A926942F008021C
:105A40009A61234B224A926942F010029A61204BDC
:105A50001F4A926942F001029A611E480121FEF735
:105A6000F9FB1D4B4FF400421A614FF42C43BB80ED
:105A70000323BB711023FB713B1D17481946FEF72A
:105A800013FB4FF48043BB800323BB714823FB719E
:105A90003B1D11481946FEF707FB4FF40063BB801E
:105AA0000323BB711023FB713B1D0C481946FEF705
:105AB000FBFA0123BB800323BB711023FB713B1D49
:105AC00007481946FEF7F0FA0837BD4680BD00BF0B
:105AD00000100240000C1A000010014000080140B4
