:020000040800F2
:10000000183F0020E52D0008596F00085D6F0008BB
:10001000A16F0008A56F0008A96F0008000000008C
:10002000000000000000000000000000AD6F0008AC
:10003000B16F000800000000B56F0008B96F00083C
:10004000E12D0008E12D0008E12D0008BD6F00083A
:10005000E12D0008E12D0008E12D0008E12D000848
:10006000E12D0008E12D0008E12D0008E12D000838
:10007000E12D0008E12D0008E12D0008797300084A
:10008000E12D0008E12D0008B9720008E12D0008FB
:10009000E12D0008E12D0008E12D0008E12D000808
:1000A000E12D000879700008E12D0008E12D00081D
:1000B000B5700008E12D00086D710008E12D000801
:1000C000D1710008E12D0008E12D0008E12D0008A4
:1000D000E12D0008E12D0008E12D0008E12D0008C8
:1000E000E12D0008E12D0008E12D000800000000CE
:1000F0000000000000000000000000000000000000
:1001000000000000000000005FF808F130B587B083
:10011000354B93E803000190ADF808100024ADF8CA
:100120000A40ADF80C40ADF80E40ADF81040ADF807
:100130001240ADF81440ADF8164020460DF004F81A
:1001400048F660100CF0DAFA28480BF013FA2D206C
:100150007A210122264B0BF069FC48F210400CF08A
:10016000CDFA24480BF006FA01AD02A82249392243
:1001700004F010FB284610F0DFFA024629181F4B46
:100180001868A8509B888B80284610F0D5FA1C4B25
:100190001B882B5264206E2101222B460BF046FC5B
:1001A00064205F210122174B0BF040FC642050219A
:1001B0000122154B0BF03AFC4FF4F2700CF09EFA52
:1001C000B42005212246114B0BF030FC4FF47A701D
:1001D00008F016FC4FF47A7008F012FC4FF47A70B5
:1001E00008F00EFC07B030BD94070108900D01081F
:1001F000C4080108CC240108D0080108D40801086B
:10020000500A0108DC080108040901081C0901085A
:100210002DE9F04F89B0AA4B9B880493A94B1B880A
:100220009BB20593A84B1B680693A84B9B8802932F
:10023000A74B1B681B780793039000BBA54BB3F833
:1002400000B09F4B1B889B441FFA8BFBA24B1A8864
:10025000BDF908309A420EBF48F66010984B1889D5
:100260000CF052FA964B5A88511CDB881344013B20
:10027000584689B25A469BB20BF080FC01E04FF021
:10028000000B8F4A148804F101091FFA89F9538879
:10029000D58803F1010808EB95081FFA88F89288C1
:1002A0001444013CA4B2023305EB450503EBA5055C
:1002B000ADB2A1458CBFC4EB0906C9EB0406B6B2CA
:1002C000A8458CBFC5EB0807C8EB0507BFB2304691
:1002D0000FF054FE0FF016FA02460B4676A1D1E954
:1002E00000010FF08DFB0FF043FD01904C4528BF3E
:1002F0004C467F08454594BF7D1907EB0805ADB214
:10030000C846C9EB0400B146B04226DA48F2104AAA
:100310000FF038FE014601980FF088FE0DF06AFBE1
:10032000064638460FF02EFE014630460FF07EFEA0
:10033000064628460FF026FE014630460FF06EFDB9
:1003400010F060F881B2204652460BF001FC0134F7
:10035000A4B2C8EB04004845DADB604B5B7813F0CD
:10036000FF0F00F09880039B012B40F094800498CD
:100370000FF004FE044605980FF000FE05460698AF
:100380000FF0FCFD014628460FF004FF0146204611
:100390000FF04CFE0746BDF908000FF0F3FD0446D0
:1003A00007980FF0EFFD014638460FF0F3FE0146C7
:1003B00020460FF03BFE8046414B9D88424B1E6815
:1003C000444B5B88414A1068C01A0FF0DBFD0446BD
:1003D00028460FF0D3FD014620460FF027FE0446C5
:1003E00030460FF0CBFD0646394B1B6818780FF0EE
:1003F000C5FD014630460FF019FE014620460FF0BC
:10040000C9FE0FF0FFFF84B220460FF0BBFD064689
:1004100040464FF07E510FF001FD8146304649467F
:100420000FF0A2FF20B148460FF0ECFF84B211E0BC
:10043000404639460FF0F2FC4FF07E510FF0ECFCD5
:100440000746304639460FF0ADFF18B138460FF079
:10045000D9FF84B21A4B1B881C441FFA84FB9A1CD8
:10046000934502DA1FFA82FB05E05A19023A9345D6
:1004700001DD1FFA82FB4FF6FF700CF045F9104BBF
:100480005A88511CDB881344013B584689B25A46AE
:100490009BB20BF073FB0A4B1B88C3EB0B0B0D4B92
:1004A000A3F800B0094B9A880B4B1A8009B0BDE83D
:1004B000F08F00BFAFF300805E3855297A6A4F4055
:1004C000242100202402002014020020F400002037
:1004D0006422002000000020B82700200402002031
:1004E0002DE9F04782B00746574C2088574B1D68CE
:1004F00080B20FF043FD0FF005F951A3D3E90023BB
:100500000FF054F98046894628460FF037FD05461E
:100510004F4B1B6818780FF035FD014628460FF049
:1005200085FD0FF0EFF802460B46404649460FF0B6
:1005300067FA0FF01DFC0546608800B20FF022FD3F
:1005400029460FF073FD4FF07E510FF067FC804697
:10055000404B1E6843F2861348F210423E498E42D9
:100560000CBF16461E463D4C20890CF0CDF8208865
:100570006188A2880244E3880B440097019692B2F6
:100580009BB20BF057FE28464FF080410FF0F6FE6D
:1005900030B9284632490FF0FBFE18B1314D01E069
:1005A0004FF0804548F660100CF0AEF82B4E3088C6
:1005B0000FF0E8FC41460FF031FC8246B6F802909D
:1005C0000FF020FF1FFA80F809F10104A4B22846B9
:1005D00051460FF023FC4FF080410FF01DFC0FF04F
:1005E00011FF82B2F3884B44013B0021009101913D
:1005F000404621469BB20BF01DFE0120FFF708FE8E
:10060000CFB9194B58880CF07FF83088F28873887E
:1006100013449BB2B2880244194692B20BF0AEFA70
:10062000B28833881A4492B27188F3880B4410461A
:100630009BB20BF0A3FA02B0BDE8F087AFF30080E5
:100640000000000000C067402402002014020020C7
:100650006422002020020020A16C00082421002038
:1006600000003E4300003D43B82700202DE9F04F35
:1006700083B004460D460CF04DF801902046642CE2
:1006800028BF6420C0EB001040005C4B83FB0038A7
:10069000C017C0EB68185FFA88FA9DB94FF6FF7073
:1006A0000CF032F84FF4B970DF214FF4C772EE232B
:1006B0000BF0A2FD40F26F10E3214FF4B972EA2370
:1006C0000BF09AFD4E4B1B799A4561D99EB2771C6F
:1006D0003B465FFA88F808F10108474580F28580BB
:1006E000C6F5C6760136B6B2DFF81C91C3F11E031B
:1006F0005B009BB2C3F13C0339F813401B2F21D898
:1007000000251FFA85FB062D03DC58460FF036FC4A
:1007100003E0C5F107000FF035FC3A490FF086FC05
:100720000FF04AFE41B2204606F0F2F904460BF102
:10073000E001304689B222460BF00AFA01350E2D4F
:10074000DFD11DE000251FFA85FB022D03DC584692
:100750000FF014FC03E0C5F103000FF013FC0FF0E1
:100760002BFE41B2204606F0D3F904460BF1E4011A
:10077000304689B222460BF0EBF90135062DE2D165
:100780000137BFB23B46013EB6B24745AEDB2CE077
:100790009A452AD243F286100BF0B6FF1FFA8AF46C
:1007A000651C174B1B7901339D421EDAC4F5C674D4
:1007B0000134A4B24FF0E408EA27114E1B2D06D8ED
:1007C0002046E0212246EE230BF0D8F905E0204632
:1007D000414622463B460BF0D1F90135ADB2013C12
:1007E000A4B2337901339D42E8DB054B83F804A0C2
:1007F00001980BF089FF03B0BDE8F08F1F85EB5126
:10080000B82700209A99993E9821010810B582B026
:100810000024094B5C71094B98880BF075FF00941C
:1008200001944FF49870E1214FF49D72EB230BF08B
:1008300001FD02B010BD00BFB8270020000000205D
:1008400010B582B004461E4B01225A7158880BF035
:1008500069FF1C480AF08EFE1B4B9B79542B01D07C
:10086000FFF7D4FF5422184B9A71184B5B7813F0A2
:10087000FF0F08D120460BF041FF40F21F400BF064
:1008800043FF134C07E020460BF038FF4FF478404D
:100890000BF03AFF0F4C0023009301934FF4987034
:1008A000E1214FF49D72EB230BF0C4FC4FF49970DF
:1008B000DF21012223460BF0B9F802B010BD00BFC2
:1008C000B8270020CC2401080000002004020020EA
:1008D000380901083C09010800B585B08378DA1EA3
:1008E000074840880090581C01900291002091B266
:1008F000024605330BF024FE05B05DF804FB00BF93
:100900000000002008B5094B1B792BB1084B1B6870
:1009100006481988FFF7E0FF064B1B792BB1044B03
:100920001B6804481988FFF7D7FF08BD5C08002042
:100930007029002058100020244B5B898B4203D083
:10094000224B1B89834202D1204B188A704710B476
:1009500014391F4B83FB0132CB17C3EB620303EB4C
:100960008303994211D11B4B1A78821A1A4B83FBCD
:100970000234D317C3EBE40303EB830303EB8303DA
:100980009A4202D1114B188A1DE0134B83FB0123BD
:10099000CA17C2EBE30303EB830303EB8303994220
:1009A0000FD10C4B1B78C01A094B83FB0032C317C5
:1009B000C3EB620303EB8303984202D1034B188A13
:1009C00001E0064B58885DF8044B7047000000209A
:1009D00067666666B42000201F85EB51B8270020AB
:1009E0002DE9F04182B00E464C4B59888A1CADF877
:1009F00006204B4A1288ADF804209B8A023B5B1A02
:100A0000ADF80230ADF8002028BB444B0C469B8A61
:100A10005B1A023B002B7DDD0025404FAB1C1C44C4
:100A2000A4B2204631880AF04BFD01280AD0B6F85E
:100A3000008020464146FFF77FFF024620464146A0
:100A40000BF086F80135ADB27C88BB8A1B1B023BDC
:100A50009D42E3DB5EE003283CD1324B58880BF02B
:100A600053FE0DF1060001A90DF102026B460AF0DA
:100A700053FD012809D0BDF80600BDF80410BDF8EB
:100A80000220BDF800300BF079F8244B59888A1CFD
:100A9000ADF80620244A1288ADF804209B8A023B58
:100AA0005B1AADF80230ADF800200DF1060001A987
:100AB0000DF102026B460AF02FFD01282AD0BDF885
:100AC0000600BDF80410BDF80220BDF800300BF0A0
:100AD00055F81FE0F6B1F0880BF016FE0F4B5C885E
:100AE0000234A4B29B8A073B9C4213DC0B4D204688
:100AF00031880AF0E5FC012806D03388A21D204683
:100B0000194692B20BF03AF80A34A4B2AB8A073B0A
:100B10009C42ECDD02B0BDE8F08100BF0000002087
:100B2000D4000020B8270020E40000202DE9F04385
:100B300085B005460F4616464C4B1C684C4B4D4A3B
:100B40009C420CBF14461C464B4B5B7813F0FF0FC6
:100B500002D1012879D185E048480AF00BFD484BC5
:100B600098880BF0CBFD444B9B78DBB2012B14D95A
:100B7000012D0BD13D4B1B684FF6FF72DA8048F216
:100B80001043E380B0464FF0010918E0374B1B6873
:100B9000DF80E780B046A94611E0012D05D1334B37
:100BA0001B684FF6FF72DA8002E0304B1B68DF8073
:100BB000334BB3F80480A4F806804FF00009228874
:100BC000D11E531D2E4F78880090013292B20192AF
:100BD000E2880292002089B202469BB20BF0B0FC80
:100BE00048462146FFF7FCFE40460BF087FD216892
:100BF0000239002089B20122A3680AF017FF1B4CBA
:100C000020680288D11E531D7F880097013292B25E
:100C10000192C2880292002089B202469BB20BF078
:100C20008FFC28462168FFF7DBFE30460BF066FD9F
:100C3000236819680239002089B201229B680AF0F2
:100C4000F5FE10480AF096FC0CE00C480AF092FC05
:100C50000B4B98880BF052FD074B9B78DBB2012BB6
:100C600094D8A2E705B0BDE8F08300BF6C00002077
:100C7000D4000020E400002004020020BC1A010877
:100C800000000020CC240108F8B54C4A53889BB2E0
:100C90004B4D6C88AE8A52884A4DB5F9045012B259
:100CA000954240F08A801BB240F2851505FB03F3A4
:100CB0000A341C440A68944201D90C6004E00A3EDC
:100CC0001E44964238BF0E600D68EB1A9DB220B1EB
:100CD0003D4B5B7813F0FF0F38D13C4B58880BF03D
:100CE00013FDEF1EBFB22C1DA4B2354EF38A043B98
:100CF0009BB23846194622460AF040FF338B043334
:100D00009BB23846194622460AF038FF348B063427
:100D1000A4B2F38A063B9C4214DA284621460AF024
:100D2000CFFB012808D028462146FFF705FE0246E2
:100D3000284621460AF00CFF0134A4B2F38A063B90
:100D40009C42EADB00221F4B5A73F8BD012834D1C4
:100D50004EF6A0300BF0D8FCEF1EBFB22C1DA4B293
:100D6000174EF38A043B9BB23846194622460AF0D6
:100D700005FF338B04339BB23846194622460AF0EE
:100D8000FDFE348B0634A4B2F38A063B9C4211DA92
:100D90000C4F284621460AF093FB012804D0284630
:100DA0002146FA880AF0D4FE0134A4B2F38A063B45
:100DB0009C42EEDB0122034B5A73F8BD2402002053
:100DC00000000020F400002004020020B8270020CA
:100DD000F0B583B00546ADF806005E4B1A8B901D4A
:100DE000ADF80400ADF80250DB8A103B9B1AADF859
:100DF000003000294AD1574E708B0BF085FCF38AE6
:100E0000053B9BB270881946B28A0AF0B7FEAF1E46
:100E1000BFB2EC1CA4B2338B05339BB238461946E3
:100E200022460AF0ABFE4C4B58880BF06DFC338B1E
:100E300004339BB23846194622460AF09FFEF38AD5
:100E4000043B9BB270881946B28A0AF097FE348B35
:100E50000634A4B2F38A093B9C4279DA3746284625
:100E60002146FFF769FD0646284621460AF028FB81
:100E7000012804D02846214632460AF069FE013492
:100E8000A4B2FB8A093B9C42E9DB61E0032918D14B
:100E9000314B58880BF038FC0DF1060001A90DF11B
:100EA00002026B460AF038FB012851D0BDF806005B
:100EB000BDF80410BDF80220BDF800300AF05EFE57
:100EC00046E04FF478400BF01FFCAF1EBFB2EC1CA5
:100ED000A4B2204EF38A053B9BB2384619462246FF
:100EE0000AF04CFE338B05339BB238461946224636
:100EF0000AF044FEF38A043B9BB238461946224668
:100F00000AF03CFE338B04339BB238461946224626
:100F10000AF034FE48F671400BF0F6FB348B0634D1
:100F2000A4B2F38A0A3B9C4212DA284621460AF010
:100F3000C7FA012806D0231D284621462A469BB21F
:100F40000AF01CFE0A34A4B2F38A0A3B9C42ECDB92
:100F500003B0F0BD00000020B827002070B50646A1
:100F60001E4CA28A013A0020618892B204F02CF94A
:100F7000A28A013A0120618892B204F025F904F1B5
:100F80000805284600210CF0A9FB03200021FFF7EB
:100F900027FD134B18880321FFF71AFF114B188800
:100FA0000321FFF715FFA6826388991901314910C3
:100FB0008AB22281F61AA6810B4BA3FB0223DB081F
:100FC000C3EBC30303EB43130B44084A13702846D7
:100FD00001210CF083FB01F0AFF870BD0000002090
:100FE00090270020922700201F85EB51B42000207D
:100FF00008B5154B5B7813F0FF0F15D0124B1B781B
:10100000DBB2022B0CD001201049FFF7E9FC0E4B9C
:101010009B78DBB2012B03D901200D49FFF7E0FCDF
:1010200001200C49FFF730FE0B4B9B79DBB2012B03
:1010300009D10A4B18880121FFF7CAFE084B18880E
:101040000121FFF7C5FE08BD04020020D4000020E6
:10105000E4000020F400002014020020902700206B
:101060009227002010B40A4B984203BFDC7A04F1A7
:10107000FF34E4B2C47A0023DAB2043250F82220FA
:1010800011810133DAB2A242F6D95DF8044B704700
:10109000D020002070B56FF0130105F039FD064631
:1010A000054D05F11804343554F8040F3146FFF7A7
:1010B000D9FFAC42F8D170BD00000020014B986010
:1010C000704700BFB827002070B582B00546037A8C
:1010D000012B1CD100886988AA88EB880024009421
:1010E0006C7A01940AF00EF928880230698802317E
:1010F000AA88023AEB88023B164C6488009480B2BE
:1011000089B292B29BB20CF043F804F003FA2B6D53
:10111000DBB10120984718E0231D55F82300314624
:101120000CF038F90134E4B2EB7AA342F4D20A4B62
:101130009B6B9D420CD12B7B043355F82300054B50
:10114000986001210CF026F902E000242646E3E72E
:1011500002B070BDB8270020000000202DE9F0414A
:1011600006460D460F4B984203BFDF7A07F1FF3763
:10117000FFB2C77A0024A046E3B2043356F8230036
:10118000A84202D041460CF005F90134E3B2BB425B
:10119000F2D92DB1044B9D60284601210CF0FAF8DC
:1011A000BDE8F081D0200020B827002030B583B002
:1011B0000446037A012B11D100886188A288E38854
:1011C000094D6D8800950BF0E3FF607A0AF00EF987
:1011D000064801210CF082FA04F09CF9236D0BB152
:1011E0000020984703B030BDB82700200800002039
:1011F00008B5012822D11B4BDB6813B11A4A1360D2
:101200000DE01A4B1A681A4B9A4208D0164B1A680E
:10121000184B9A4203D1A3F11002134B1A60114BE1
:101220001B7C012B06D10122134B9A711348FFF747
:101230004BFF08BD0022104B9A7108BD80B90E4BC0
:101240009979084A117408490968D1609B79DBB221
:10125000012B05D10022084B9A710848FFF7A6FF21
:1012600008BD00BFB82700209C2700205020002088
:1012700068200020D43501081402002048260020F0
:10128000014B9863704700BF00000020F8B510B311
:10129000461EF6B201360025114C124F94F842302A
:1012A00003FB05F33A6832F813000BF02DFAA08F18
:1012B0001FFA85FEE18FA28FE38F94F841C070443E
:1012C0007244634480B289B292B29BB20AF056FC77
:1012D0000135B542E2D10122014B83F84320F8BD2C
:1012E0000000002068290020014B93F8430070475C
:1012F00000000020184B93F84330DBB2012B29D1BA
:10130000F0B583B0144C002584F8435001200AF056
:101310006DF8124B58880BF0F7F9A08FE18FA28F70
:1013200094F84070E38F94F84160013801393A44F1
:1013300033440095019580B289B292B29BB20AF013
:1013400079FF04F1080001210CF0C8F904F0E2F87B
:1013500003B0F0BD704700BF00000020B827002098
:101360002DE9F8430E46244991F84230DAB291F85B
:101370004330DBB2012B3CD1054691F84030984216
:1013800037D202FB00F39CB2DFF87090D9F800303E
:1013900033F814000BF0B8F9174FB88FDFF86080FE
:1013A000B8F812E0F98FBA8FFB8F97F841C07044FC
:1013B0007244634480B289B292B29BB20AF0DEFBFF
:1013C000D9F8003033F81430338000200BF09CF94A
:1013D000B88FF98FBA8FFB8F97F8414028442A4481
:1013E000234480B289B292B29BB20AF0C7FBA8F83C
:1013F0001250BDE8F88300BF0000002068290020DB
:10140000B82700202DE9F04782B02B4B9D8ADC8A5B
:101410002A4B9B7913F0FF0F4AD10646A5F13D0AEE
:101420001FFA8AFAA4F121081FFA88F86F1EBFB2CA
:10143000A4F106091FFA89F9012824D1204B1A6862
:10144000204B9A421FD0A5F13E00631F002200925C
:101450000B22019280B241463A469BB209F052FFFC
:1014600020B304F057F807F0B3FC41F2A4000BF0EE
:101470004BF9002300930193504641463A464B46B0
:101480000AF0D8FE12E00B2009F0B0FF70B10E4B4D
:101490005B880093504641463A464B460BF078FE37
:1014A0000A4801210CF01AF904F034F8084B1E70B8
:1014B00002B0BDE8F08700BF000000201402002049
:1014C0005020002054200020B827002008000020D1
:1014D00023290020012808D1094B1B7D7BB9084B2B
:1014E0000A785A7501221A75704740B9044B1B7D62
:1014F000012B04D1024B5A7D0A7000221A757047E5
:10150000B827002070B582B0FEF700FE2C4CA088F2
:101510000BF01AFE2B4B58880BF0F6F86088218BE5
:101520000531A28AE38A053B01250095668B019669
:1015300089B29BB20AF07EFE04F1080029460CF045
:10154000CDF82148A063FFF7BFFD20480AF012F84C
:101550001F4B9B79DBB2AB4202D11E48FFF7B4FDB3
:101560001D4B1B78012B06D101201B49FFF7B2FF51
:101570000120FFF747FF0020FEF7B2FF012048F2ED
:1015800010414FF47842FFF7D1FA01201349FFF7D9
:101590007BFB134B93F8600001F04EF8FFF7B2F9B4
:1015A00064200021FFF762F84CF6596300934FF472
:1015B000A070E02101220B4B0AF09AFA02B070BD34
:1015C00000000020B8270020D0200020CC240108F3
:1015D000140200204826002023290020F4000020C7
:1015E00070000020400901080C4BDB79DBB2012BB5
:1015F00009D10A4B1B7A13F0FF0F0CBF084A094AA6
:10160000094B1A617047054B1B7A13F0FF0F0CBF93
:10161000064A074A044B1A61704700BF14020020B3
:101620004809010854090108B8230020600901088D
:1016300068090108F8B53D4E3D4C94F8443036F841
:101640002300022105F064FA3A4B188094F84530E3
:1016500036F82300022105F05BFA374B188094F826
:10166000463036F82300FFF715FD344D6F6994F8C6
:10167000443036F823006FF0170105F049FA38813D
:101680002F6B94F8443036F823006FF0170105F003
:101690003FFA3881AF6994F8453036F823006FF08F
:1016A000170105F035FA38816F6B94F8453036F83C
:1016B00023006FF0170105F02BFA38816969204B80
:1016C00094F8472033F822208A81296B8A81A969FE
:1016D00094F8482033F822208A81696B8A8194F833
:1016E000492033F822302382164B1B7843B1E96935
:1016F000013B03EB8303144A02EB43030B6109E054
:101700000E4BD969114B1B7803EB8303104A02EB94
:1017100043030B61FFF768FF0E4B5B7ADBB2012BD3
:101720000CBF0D4A0D4A0E4B1A61F8BD98210108F5
:10173000000000205C08002058100020D02000206D
:10174000981F010831280020A8070108322800202E
:10175000C80701081402002070090108780901086F
:10176000D023002038B50124064B1C80064D2846A6
:1017700044F6206100F06CFB2846214600F03AFB5D
:1017800038BD00BF622400200008004010B5384B6F
:10179000986B384B1B78827B9A4203D1037B0133D1
:1017A000037305E0C27B9A4202D1037B013B0373C2
:1017B000037BFF2B02D1C37A03731FE0C27A9A42E4
:1017C0001CD2837A0373437BC3B1012B02D1FFF791
:1017D000EDFC06E0022B04D1274B986800210BF0AA
:1017E000D9FD264B224A93631A7B043253F8220018
:1017F000214B986001210BF0CDFD10BD027B204BE9
:101800001B789A421DD01A4B93F84330DBB2012B60
:1018100001D1FFF76FFD184B98681A4B984203D11E
:101820000020FEF75DFE02E000210BF0B3FD104B3F
:101830009A6B137B191D52F821100F4A9160104AC0
:101840001370114B5B7A13F0FF0F01D0FFF78AFF83
:10185000094CA3685B699847A0680A4B984203D17A
:101860000120FEF73DFE10BD01210BF093FD10BDE0
:10187000000000207C290020B8270020D020002074
:1018800064290020242100201402002008B5024809
:10189000002100F0AFFA08BD0008004070B582B02A
:1018A000174D68880130B5F84E10B5F85020053254
:1018B000B5F85230134C6688009680B292B20BF0A5
:1018C00067FC0A2009F092FD05F1080001210BF0E8
:1018D00005FF03F01FFE0023A361E361236263623F
:1018E000A362E36223636363A363E36323646364C8
:1018F000A4F84830EB6585F8603002B070BD00BFD9
:1019000000000020B8270020224B93F84330DBB2C0
:10191000012B3DD070B582B004460D461D4B93F8A7
:101920006030012B01D1FFF7B9FF1B4B93F86030FA
:101930001BB1BD22174BDA8702E0CB22154BDA87A9
:10194000144B83F84040012683F843604FF48072C3
:1019500092FBF4F2D2B283F84220104A1560988FBD
:10196000D98F9A8F93F8405001382A44DB8A063B7E
:1019700000250095019680B289B292B29BB209F01F
:10198000C1FC03F0C7FD2046FFF780FC02B070BD2C
:10199000704700BF00000020700000206829002070
:1019A000F0B583B00746324B93F860303BB9314B0A
:1019B000CE22A3F84E20DC22A3F8522006E02D4BC5
:1019C000BA22A3F84E20C822A3F85220294B93F83C
:1019D0006030012B01D1FFF761FF264CB4F84C3089
:1019E000264626F8503F38460EF0A6FE0246224D07
:1019F00005F1180039460EF05DFD3046616D0AF0C4
:101A000083F860880130B4F84E10B4F85020B4F870
:101A10005230002600960A26019680B209F072FC28
:101A200003F078FD60880130B4F84E10B4F850200F
:101A30000532B4F852306D88009580B292B20BF046
:101A4000A7FBB4F84C00B4F84E10B4F8583000932B
:101A50000122636D0AF04CF800F0A6F894F85A30B1
:101A60001844E065012384F8603003B0F0BD00BF86
:101A70007000002000000020B8270020F8B500AF5B
:101A8000D31D23F00703ADEB030D6D46561C012358
:101A9000002403EB83035B000134B442F9DB013B18
:101AA000984228BF1846541E26D4154400264FF0ED
:101AB000010E013DAC462E70002C08DD7346324607
:101AC00003EB83035B000132A242F9D100E07346CD
:101AD0001A46834207D83346801A0133DBB282426A
:101AE000FAD98CF800309CF80030303301F8013B13
:101AF000013CB4F1FF3FDCD1BD46F8BD70B582B00A
:101B00000646144DA8880AF00DFE134809F032FD70
:101B100005F16404AB88009340F25D10E0210022DF
:101B2000234609F0E5FF3046632E28BF6320214697
:101B30000222FFF7A3FF4CF65963009340F25D10B9
:101B4000E0210022234609F0D3FF0022034B1A7044
:101B500002B070BD00000020CC240108162800202F
:101B600029B1064A13889BB2184310807047034A74
:101B700013889BB223EA00001080704700280040C1
:101B8000034A93889BB243F010039380704700BFD1
:101B900000280040034A938823F010031B041B0C09
:101BA0009380704700280040034A938B9BB2108BB0
:101BB00043EA0040704700BF0028004010B50446CB
:101BC000FFF7DEFF220C034B1A83A4B29C83FFF7BE
:101BD000E1FF10BD0028004010B50446FFF7D0FF1C
:101BE000C4F30342034B1A81A4B29C81FFF7D2FFD6
:101BF00010BD00BF00280040034A938803F0200373
:101C00009BB2002BF9D0704700280040064A938809
:101C100023F008031B041B0C9380938803F0080334
:101C20009BB2002BF9D0704700280040074A9388E8
:101C30009BB21288104206D0034013F0FF0F14BF6E
:101C40000120002070470020704700BF002800409E
:101C5000034A93889BB223EA00009080704700BF3C
:101C60000028004003889BB2244A904212D002F51B
:101C7000006290420ED0B0F1804F0BD0A2F59832A6
:101C8000904207D002F58062904203D002F5806254
:101C9000904203D123F070034A881343184A9042BC
:101CA00025D002F58062904221D023F440739BB28C
:101CB000CA88134303808B8883850B8803850F4B69
:101CC00098420FD003F5006398420BD003F54063B0
:101CD000984207D003F58063984203D003F58063F0
:101CE000984201D10B7A03860123838270470380D7
:101CF0008B8883850B880385F6E700BF002C0140A5
:101D00000010004030B4038C23F480731B041B0CC0
:101D10000384038C8488A4B2828B22F073021204A1
:101D2000120C0D88154323F400731B041B0C0A8945
:101D300043EA02234A8843EA02239BB2114A9042B3
:101D400003D002F50062904215D123F400639BB2E8
:101D50004A8943EA02224FF6FF3313408A8843EA56
:101D600002239BB224F440548A8944EA0214CA89AB
:101D700044EA0214A4B284808583CA8882870384DB
:101D800030BC7047002C014030B4038C23F48053E6
:101D90001B041B0C0384038C8488A4B2828B22F462
:101DA000E6421204120C0D8842EA052292B223F494
:101DB00000531B041B0C0D8943EA05334D8843EA8D
:101DC00005339BB20A4DA84203D005F50065A84231
:101DD00005D124F480448D8944EA8514A4B284801A
:101DE0008283CA88A0F84020038430BC704700BFBB
:101DF000002C014029B103889BB243F0010303800A
:101E00007047038823F001031B041B0C03807047F9
:101E100029B103889BB243F0800303807047038895
:101E200023F080031B041B0C03807047838B23F07B
:101E300008031B041B0C194381837047838B23F415
:101E400000631B041B0C43EA012189B281837047A4
:101E500081857047028A83899BB2114204D019425E
:101E600014BF0120002070470020704708B50128EA
:101E70000CBF00200120FFF7BBF908BD014B186023
:101E8000704700BF6C000020934B93F86430012B27
:101E900040F02181F0B583B0022809D18E4B988C97
:101EA000D98C8E4A128800920022283309F020FE35
:101EB0008B4B1B78DBB2022B00F09880884B1B7891
:101EC00013F0FF0F0CBF874A874A884B1A60824D78
:101ED0002E1D05F12807864B93E80300A862A9850B
:101EE00038460EF029FC0446A86E0EF04BF8054665
:101EF0007E4B1B6898780EF041F8014628460DF09D
:101F00008BFFE1B23144243107F002F838460EF07D
:101F100013FC20303318774A1068586038460EF0AA
:101F20000BFC20303318744A106858606C4B9B7857
:101F3000DBB2022B04D06A4B9B78DBB2032B19D1A6
:101F4000654D2E1D05F128000EF0F6FB0446A86F26
:101F50000EF018F80546654B1B6898780EF00EF8E1
:101F6000014628460DF058FFE1B23144243106F015
:101F7000CFFF0EE05848041D28300EF0DDFB203066
:101F80002318191D5D4A10685860908893798880DD
:101F90008B71514E351D06F1280420460EF0CCFB06
:101FA00020302844564B1A889B78828083712046C3
:101FB0000EF0C2FB20302B18524A106858602046A1
:101FC0000EF0BAFB0446D6F888000DF0DBFF06469B
:101FD0004D4B18880DF0D2FF014630460DF01CFF26
:101FE000E1B22944243106F0F9FF4CE03A4B1C1DC4
:101FF00003F12805454A9A6228460EF09DFB444BA2
:102000001A782044434E2430314602F0C3FB284660
:102010000EF092FB203023183F4A10685860127966
:102020001A7228460EF088FB3C4B1A782044243064
:10203000314602F0AFFB28460EF07EFB203023181D
:10204000374A1068586092881A8128460EF074FB4F
:10205000344B1A7820442430314602F09BFB28464A
:102060000EF06AFB203023182F4A1068586012794E
:102070001A7228460EF060FB2C4B1A78204424304C
:10208000314602F087FB144C261D04F12805284632
:102090000EF052FB20303044254B1A889B7882800A
:1020A00083710F4B9B7804EB8303284659680EF02D
:1020B000C5FA28460EF040FB30441E4B1B88838433
:1020C000A08CE18C48F2F073009300222B4609F0BB
:1020D0000FFD03B0F0BD70476C000020BA27002050
:1020E000040200205C080020581000207029002005
:1020F000A4090108AC090108B0090108B4090108E4
:10210000B8090108BC09010802000020434D3A004B
:1021100050220020C0090108C809010858220020E7
:10212000D00901084C220020D809010854220020BF
:10213000E0090108E409010810B50020FEF768F87D
:1021400000202049FEF7A0FD1F4B5B7813F0FF0F26
:102150002DD01E4B1B781D2B08D11D4A1378591CFE
:102160001170092B8CBF052301230BE01E2B08D116
:10217000174A1378591C1170092B8CBFFB23FF23BE
:1021800000E00023134A5288134CA4F88C205BB261
:10219000D4F88820134444F8883F0120FEF738F82B
:1021A00001202146FEF770FD0220FFF76DFE064B71
:1021B000DB680A4A12880849D1F888001B69801A2E
:1021C000984710BDF4000020040200207C29002064
:1021D0006F280020240200206C0000200200002054
:1021E00038B504460D46184B1860184B1A88002065
:1021F0001146FEF79BFC216829442160144B1B8883
:102200000A33994201DA236005E0124B1B880A3B2E
:102210009942C8BF236001200C4B19884FF47842C3
:10222000FEF784FC0C4B18461988FEF755FB0B4B48
:1022300018461988FEF750FB0220FFF725FE084BD1
:10224000DB681B68984738BD6C0000200400002044
:1022500018000020160000205C0800205810002004
:102260000402002010B50B4B1B781D2B03D01E2B36
:102270000ED1FF2100E00121074A13785C1C147085
:10228000092B84BF01EB8101C9B249B2FFF7A8FF56
:1022900010BD00BF7C2900206F2800200D4B5B780B
:1022A00013F0FF0F0FD00B4B1B78DBB2022B0AD0C1
:1022B00010B5094C04F19800FEF700FF04F1680026
:1022C000FFF7D0FF10BD054B1B6848F671425A81DD
:1022D000704700BF040200206C000020C0270020CF
:1022E00008B5114B5B7813F0FF0F17D00E4B1B781E
:1022F000DBB2022B12D00C4B9B78DBB2022B04D04A
:10230000094B9B78DBB2032B0DD1084B1B684EF6B3
:10231000A0325A810648FFF7A5FF08BD034B1B6892
:1023200048F671425A8108BD04020020C0270020EF
:10233000E400002008B52B4B1B781D2B0AD12A4B3B
:102340009B78DBB2062B4BD8274A93780133DBB25C
:1023500093700BE01E2B43D1234B9B7813F0FF0FA0
:102360003ED0214A9378013BDBB293701E4A9178AC
:102370001E4B03EB810359681D4B1B681961937851
:10238000DBB2032B25D81B4B1A8800201146FEF721
:10239000CDFB154B9B78DBB2022B04D0124B9B7804
:1023A000DBB2032B0ED1114A936E1E3B9367124A88
:1023B000128805329342BCBF0C4B9A670B4B03F15A
:1023C00068021A60012048F210414FF47842FEF78B
:1023D000ADFB0220FFF758FD034BDB681B689847F5
:1023E00008BD00BF7C290020040200206C000020F2
:1023F000C0270020040000201800002010B5454B25
:102400001B78DBB2022B0FD1434B1B780F2B0BD168
:10241000424800210AF0BEFF414C2046FEF730FF43
:102420002046FEF751FE10BD3B4B1B781E2B0AD1F8
:10243000384B1B7813F0FF0F6AD0364A1378013BF4
:10244000DBB213700BE01D2B62D1324B1B78DBB279
:10245000012B5DD82F4A13780133DBB21370314B57
:102460001A8800201146FEF761FB2A4B1B7813F0F7
:10247000FF0F04D0274B1B78DBB2012B1BD1254B60
:102480005B7813F0FF0F16D0224B1B7813F0FF0F71
:102490000CBF254B254B9B78254A93661E3B9367C3
:1024A00000221C4B9A70012048F210414FF47842F0
:1024B000FEF73CFB08E01E4B002283F8742083F8F3
:1024C00084200422134B9A70124C2378184803EB93
:1024D0008303184A02EB4303C0F8C030A37800EB33
:1024E00083035B68C0F8D830C83000210AF052FF7F
:1024F0000220FFF7C9FC0C4B18461988FEF7ECF9CF
:102500000A4B18461988FEF7E7F9E3681B689847F5
:1025100010BD00BF040200207C2900201C01002007
:1025200040020020040000205C0800205810002019
:102530006C0000208409010808B5364B1B780F2B6E
:102540003AD1354B1B78DBB2022B27D0324B9B782C
:10255000DBB2022B04D0304B9B78DBB2032B12D1C1
:102560002E4B03F168021B6893420CD1A2F1680361
:1025700003F178021A600120294B19884FF4784240
:10258000FEF7D4FA08BD254B03F168021A6000205B
:1025900048F210414FF47842FEF7C8FA0AF036FAD2
:1025A000204B18684EF6A033438101210AF0F2FE59
:1025B0001D4A1E4B1A6008BD172B0CD1174B1B6808
:1025C0001A68013A1A4B1B880A3B9A4211DA1D22FB
:1025D000104B1A7010E01B2B0BD1104B1A68154BC7
:1025E0001B88013312689A4203DD1E22094B1A70C0
:1025F00002E0FFF7A1FD08BD074B1B78DBB2022B01
:1026000006D0064B1868FFF72DFE0220FFF73CFCB2
:1026100008BD00BF7C290020040200206C000020BF
:1026200004000020C02700208D1700082002002091
:1026300016000020180000202DE9F04182B0064667
:102640001D4B1888013087B21C4B1B88A3F114085E
:102650001FFA88F81A4A1278012A1A4A15880CBFFC
:102660003E3D05F1FF35ADB2063B9CB2164B1B88D3
:102670000093384641462A4623460AF089FD012E3A
:102680000DD10023009303230193384641462A4687
:10269000234608F037FE0120FFF7F6FB07E036B9C6
:1026A000032008F0A3FE094801210BF017F802F0FF
:1026B00031FF02B0BDE8F0810200002016000020CA
:1026C0002329002014000020BA2700200800002041
:1026D00008B50B4B1B780F2B11D10A4B93F86430C4
:1026E00023B90122074B83F8642003E00022054B45
:1026F00083F86420034B93F86400FFF79DFF08BD47
:102700007C2900206C000020014B1868000C7047E9
:10271000002004E0024B1868C0F30B00704700BFB4
:10272000002004E082B03B4B1A6842F001021A60BC
:102730005968394A0A405A601A6822F0847222F4B1
:1027400080321A601A6822F480221A605A6822F4D1
:10275000FE025A604FF41F029A600022009201921A
:102760001A6842F480321A601A46136803F4003380
:102770000193009B01330093019B1BB9009BB3F5B0
:10278000A06FF2D1234B1B6813F4003F14BF012349
:1027900000230193019B012B36D1204B1A6842F094
:1027A00010021A601A6822F003021A601A6842F0D6
:1027B00002021A60A3F580535A685A605A685A6038
:1027C0005A6842F480625A605A6822F47C125A6055
:1027D0005A6842F4E8125A601A6842F080721A602D
:1027E0001A46136813F0007FFBD00A4B5A6822F098
:1027F00003025A605A6842F002025A601A4653684D
:1028000003F00C03082BFAD14FF00062044B9A60DE
:1028100002B07047001002400000FFF800200240A4
:1028200000ED00E010B504464FF4784009F066FF73
:102830001420B4210022234609F0F8F84FF4FA706E
:1028400006F0DEF8002009F059FF1420B421002220
:10285000234609F0EBF8044801210AF03FFF034A40
:1028600013780133137010BD0800002002280020E7
:1028700072B6002A00F0B0802DE9F84F88468146F4
:1028800001F1010A531EDBB253441FFA83FA534C81
:102890004FF4204B524D534E534FC4F800B02846CE
:1028A000012106F055F907E023685A1E22601BB982
:1028B0004E48FFF7B7FF80E02846314606F074F92E
:1028C0000028F1D02846A021002206F063F907E095
:1028D00023685A1E22601BB94548FFF7A3FF6CE02E
:1028E0002846394606F060F90028F1D028464FEA1C
:1028F000182106F049F907E023685A1E22601BB927
:102900003C48FFF78FFF58E028463B4906F04CF95A
:102910000028F1D028465FFA88F106F035F907E083
:1029200023685A1E22601BB93448FFF77BFF44E03E
:102930002846314906F038F90028F1D0284601210F
:1029400006F006F907E023685A1E22601BB92C48DE
:10295000FFF768FF31E02846314606F025F90028E8
:10296000F1D02846A021012206F014F907E02368DF
:102970005A1E22601BB91E48FFF754FF1DE028466F
:10298000204906F011F90028F1D007E023685A1E0B
:1029900022601BB91C48FFF745FF0EE028461B4983
:1029A00006F002F90028F1D0284606F0EFF889F881
:1029B00000002846012106F0D9F80A2006F020F888
:1029C00009F1010908F101081FFA88F8D0457FF4E0
:1029D00064AF62B6BDE8F88F62B67047FC010020B4
:1029E0000054004001000300820007005C0A010857
:1029F000780A0108940A010884000700B40A010853
:102A0000D40A010802000300F40A01084000030090
:102A10002DE9F84F72B6FF24454B1C70002A00F0D8
:102A200083800F46814601F1010A531EDBB25344F5
:102A30001FFA83FA3F4CDFF824B14FF000083E4DF7
:102A40003E4E4FF4204323608BF80080284601213E
:102A500006F07EF807E023685A1E22601BB938484A
:102A6000FFF7E0FE57E02846314606F09DF80028C3
:102A7000F1D02846A021002206F08CF807E0236858
:102A80005A1E22601BB92F48FFF7CCFE43E02846B0
:102A90002D4906F089F80028F1D02846390A06F0B9
:102AA00073F807E023685A1E22601BB92748FFF716
:102AB000B9FE30E02846264906F076F80028F1D025
:102AC0002846F9B206F060F807E023685A1E226033
:102AD0001BB92048FFF7A6FE1DE028461C4906F05A
:102AE00063F80028F1D0284699F8001006F04CF859
:102AF00007E023685A1E22601BB91748FFF792FEB1
:102B000009E02846124906F04FF80028F1D028467F
:102B1000012106F02BF80A2005F072FF0137BFB241
:102B200009F1010957458CD162B6BDE8F88F00BFA5
:102B300061240020FC01002000540040010003003B
:102B40005C0A0108780A010882000700940A01085B
:102B500084000700B40A01080C0B010802280020B9
:102B600048B94FF000620C4B1A614FF4803203F504
:102B700080631A617047094B1B79012B03D14FF415
:102B80000062054B1A61064B1B79012B02D1012211
:102B9000044B1A61704700BF000801405C08002028
:102BA00058100020000C014010B50C4601EB41020A
:102BB000204B03EB82031A7902F0070302F0800234
:102BC00088B91D490C7022B14FF080611B4A116118
:102BD00003E04FF48061194A116119490A7802F043
:102BE000F8020A7014E0012822D113494C7022B176
:102BF0004FF00061114A116103E04FF400610F4A88
:102C00001161DB00DBB20E490A7802F0C7020A70DC
:102C10000B4A11780B43137050881178C0B203F03F
:102C20004BF804EB4404034B03EB8404A06810BD91
:102C3000002010BD240B01080428002000100140D2
:102C400018220020034610B9044B18787047012859
:102C500006BF024B5878FF20704700BF04280020B1
:102C600000EB4000014B53F820007047240B010893
:102C7000014B18440079704704280020FF2808D031
:102C8000032803D1034B197159717047014B184444
:102C900001717047042800202DE9F0412A4B1D687E
:102CA000EE783046FFF7CEFF284B33441C79012CD9
:102CB00042D16A1D05F231187F214FF0810C12F8C4
:102CC000013F4FFA83FE4FFA8CF7BE4506DC49B24E
:102CD00073468E45A8BF0B46D9B200E09C464245DC
:102CE000EDD14FFA8CF3782B0DDC4BB213F1780F4A
:102CF0000BDBC1EB0C03DBB2F02B08D8312B94BFFC
:102D0000FF23002304E0012302E0012300E001236C
:102D1000C118C9B2CBB258B295F8D82790420DD09D
:102D200013F0800F0CD185F8D8173046FFF73CFF21
:102D30000A2005F065FE04E0002402E0002400E023
:102D400000242046BDE8F0817029002004280020DE
:102D500008B548B902290C4A13780CBF43F00403A4
:102D600023F00403137008E00229074A13780CBF0C
:102D700043F0080323F008031370034B58881978B5
:102D8000C0B202F099FF08BD1C22002008B501283E
:102D90000BD10E4A137823F0060343F0040313709B
:102DA0004FF400520A4B5A6108E0084A137823F0A6
:102DB000060313704FF40052054B1A61034B5888F9
:102DC0001978C0B202F078FF08BD00BF20220020B1
:102DD00000080140014B1860704700BF20000E4200
:102DE000FEE700BF08B5104B104A9A420DD2101DE5
:102DF0000333181A20F0030004300D4B184453F825
:102E0000041B42F8041B8342F9D10A480A494FF0D7
:102E100000028842B8BF40F8042BFADBFFF782FCBF
:102E200000F0C0FD08BD00BFB82700200000002052
:102E3000003B0108B8270020143B0020F0B5CB78F8
:102E400003F00F0613F0100F1CBF8B781E430B7896
:102E5000F3B10568002201274FF00F0E07FA02F3C5
:102E60000C881C409C420FD193000EFA03FC25EA0B
:102E70000C0506FA03F31D43CB78282B01D14461DE
:102E800002E0482B08BF04610132082AE6D1056040
:102E90000B88FF2B21D94568002301274FF00F0C29
:102EA00003F1080207FA02F40A882240A24210D174
:102EB0004FEA830E0CFA0EF425EA040506FA0EF426
:102EC0002543CC78282C08BF4261CC78482C08BF19
:102ED00002610133082BE3D14560F0BDC36819429C
:102EE00014BF01200020704730B40028184BB4BF35
:102EF000DB695B6882B200F44014B4F5401F07D16F
:102F000023F07063124D6C6824F070646C6013E001
:102F100010F4801F08D0C0F303450324AC4023EA1B
:102F2000040343F0706307E0440D240102FA04F443
:102F300023EA040343F0706319B1410D09018A408B
:102F400013430028024AB4BFD361536030BC7047BA
:102F50000000014008B505F0A7FB08BD08B5034B0C
:102F60001860184602F0E8FE08BD00BF38220020B5
:102F700010B5034C204602F0F5FE206810BD00BFDE
:102F80003822002008B50A4B1A680A4B5B79DBB27D
:102F9000012B094BDB689B68117A0CBF02220122CE
:102FA0009847064B1860184602F0C6FE08BD00BFE1
:102FB00050200020140200200402002028220020BB
:102FC00038B5084B5B79DBB2012B0CBF022501251C
:102FD000054BDB68DC68054802F0C4FE2946A047C3
:102FE00038BD00BF14020020040200202822002067
:102FF00010B505F031FB0020FFF7B0FF4FF4C870AB
:10300000FFF7C0FF154C60882178C0B202F054FE73
:10301000134B58882178C0B202F04EFE114B5888ED
:103020001978C0B202F048FE0F4B58881978C0B228
:1030300002F042FE0D4B58881978C0B202F03CFEF7
:10304000FFF796FF38B9FFF7BBFFB0F5C87F14BF95
:103050000220002010BD012010BD00BF242200204E
:10306000202200201C2200201822002014220020F0
:10307000014B1870704700BF0A280020014B1878D8
:10308000704700BF0A2800202DE9F8437D4C67787F
:10309000FFB201227C4B1A707C4B5879FFF776FE09
:1030A000637813F0FF0F13D0FFF78AFF0446FFF792
:1030B0005FFF774B1B681B7A9B0004FB03F400FB4C
:1030C00004F04309734DA5FB0335ED09C83501E054
:1030D0004FF47A75704B1A7842F040021A70588893
:1030E0001978C0B202F0E8FD6C4B1A686C4B9A423A
:1030F00010D00120FFF734FD6A4B1A7842F001022C
:103100001A701A7842F002021A7058881978C0B200
:1031100002F0D2FD012005F073FC634C237843F0EC
:103120000103237060882178C0B202F0C5FD554BC1
:10313000DB685B699847237843F00203237060885B
:103140002178C0B202F0B8FD00234F4A5370A9465F
:10315000564A1560564A938413889BB243F0010384
:103160001380544D484C544EDFF8188135E03378C5
:10317000012B03D105F00EFA012836DC6378DBB2AF
:10318000012B2AD198F80130DBB2022B07D10022A3
:103190003C4B5A704FF6E072484B1A8025E04FF6D0
:1031A000FF72464B1A8063881BB91046FDF748FB37
:1031B00003E040F64100FDF743FB638883F0010321
:1031C000638000236370394AC2F80090384A9384C0
:1031D00013889BB243F001031380AB6813F0200FF8
:1031E00003D1237813F0FF0FC1D1274D00246C7059
:1031F0002E4B1C602E4A9484138823F001031B0479
:103200001B0C1380284B1C7058881978C0B202F030
:1032100053FD2046FFF7A4FC224B1A7822F001024E
:103220001A701A7822F002021A7058881978C0B2FF
:1032300002F042FD184B1A7822F040021A705888AA
:103240001978C0B202F038FD0E4B5F70DB681B6866
:1032500098472B7813F0FF0F10D06B78DBB2012B5F
:1032600004D0FDF7D3FA02222A7007E0054B5B7801
:10327000DBB2022B02D10222034B1A70024B1878E8
:10328000BDE8F883040200200A2800201402002070
:1032900050200020C55A7C0A1822002070290020E6
:1032A000541800201C220020142200206C29002029
:1032B000002C0140001001402C29002002020020B7
:1032C00008B528B9084A137843F01003137004E0D6
:1032D000054A137823F010031370034B58881978AC
:1032E000C0B202F0E9FC08BD2422002008B5012884
:1032F00010D10F4B1A7842F008021A7058881978CA
:10330000C0B202F0D9FC0F2002F0F0FC012005F061
:1033100097F908BD064B1A7822F008021A705888EF
:103320001978C0B202F0C8FC002005F089F908BD88
:1033300024220020F8B504460846FFF7C1FF002C00
:1033400004DC274B5B7813F0FF0F47D06FF000438E
:103350009C4219D1234C237843F0010323706088E9
:103360002178C0B202F0A8FC1F4B40221A614FF432
:1033700080021A61237823F001032370608821788A
:10338000C0B202F099FCF8BD154B5B7813F0FF0F4B
:1033900005D0164B9B680BB1023400E004340120C9
:1033A000FFF7A4FF124B1E6820460F4B40214FF43D
:1033B0008002104D0D4F0CE0196119611A611A61FC
:1033C000AE4205D0BC681CB1196119611A611A615D
:1033D00001380028F0DC0020FFF788FFF8BD00BFAF
:1033E00004020020202200200010014024020020BE
:1033F00050200020542000202DE9F0475D4B5B79E0
:10340000DBB2012B0CBF02250125FFF7D9FD5A4B7A
:103410001B681A7A594B1B88594909885B1A013B6A
:1034200002FB03F3574909680C7893FBF4F4564BFD
:103430005B881BB2DB4302FB00F005FB00F204FBE0
:10344000032393FBF5F54FF08052504BC3F88020D7
:103450006FF000400121FFF76DFF28460121FFF7C3
:1034600069FF0120FFF742FF424B5B79DBB2012B82
:103470001ED1474A224447494026474D4FF4800019
:10348000464F0E610E61AB681B0A7F3BDB439371B5
:1034900008610861AB6897F804E01B0A7F3BDB43D7
:1034A000CEEB03035371023C023A002CE9DC58E0F6
:1034B000314BD3F800E03A4B9E451ED135494023AD
:1034C0000B610B61344DAA684FF4800008610861FC
:1034D0000B610B61AB6808610861120A7F3AD24345
:1034E0001B0A7F3BDB4312B21BB29A4205DD0B463F
:1034F00040220A610A611861186107342449214495
:10350000284B1C44234A4FF040094E46224D4FF4AD
:103510008000DFF88C80DFF870A0DFF874C01661DF
:103520001661AB684F1E1B0A7F3BDB4301F8013C71
:1035300010611061AB681B0A7F3BDB4304F8013D5F
:10354000C64508D0DAF808302BB1C2F81090C2F89E
:103550001090106110610739CCEB01033946002B44
:10356000DDDC0020FFF7C2FE4FF08052074B1A60EF
:10357000BDE8F08714020020502000201400002035
:1035800002000020642200202402002000E100E06C
:103590005C08002000100140000C01400A280020B7
:1035A000542000205810002038B529B15B490B7811
:1035B00043F002030B7004E058490B7823F0020338
:1035C0000B70574B1B6857490968022853D0534D5D
:1035D0002C7804F07F042C7028B9287820F00100A2
:1035E0002870514C08E0012840F096804B4C207820
:1035F00040F0010020704D4CDBB2C9B24C4800785D
:1036000050B92078C3F17F03034403F0FF03C1F1F5
:103610007F01014401F0FF01404C207820F00400BC
:103620002070032A78D8DFE802F002080E0EFF218E
:10363000404A1170404A137010E03E4A1370002255
:103640003D4B1A700AE03B4801703B490B70022A5F
:1036500004D1324A137843F004031370354B588871
:103660001978C0B202F028FB334B58881978C0B2E1
:1036700002F022FB4AE029490B7863F07F030B70CC
:10368000043A032A48D8DFE802F0020C1620234B44
:103690001A7842F004021A701A7822F040021A7066
:1036A0001CE01E4B1A7842F004021A701A7842F09D
:1036B00040021A7012E0194B1A7822F004021A70B4
:1036C0001A7842F040021A7008E0144B1A7822F07F
:1036D00004021A701A7822F040021A70174B5888A8
:1036E0001978C0B202F0E8FA154B58881978C0B2C0
:1036F00002F0E2FA134B58881978C0B202F0DCFAF3
:10370000114B58881978C0B202F0D6FA034B58888A
:103710001978C0B202F0D0FA38BD00BF24220020D0
:10372000D4000020E40000205E0800205A10002091
:103730002C290020602200205C2200205022002042
:103740004C220020582200205422002008B50128D5
:1037500009D10D4B1A7842F020021A701A7862F0E3
:103760007F021A7008E0084B1A7822F020021A70C3
:103770001A7802F07F021A70034B58881978C0B289
:1037800002F09AFA08BD00BF2422002010B50446BA
:103790000128084A13780CBF43F0010323F001030A
:1037A0001370044B58881978C0B202F085FA024BA6
:1037B0005C7110BD242200200A280020014B58799A
:1037C000704700BF0A28002008B500F00100064A33
:1037D000137803F07F0343EAC0101070508811780B
:1037E000C0B202F069FA08BD1822002010B5044CDE
:1037F0006088C0B202F07AFA2070207810BD00BF55
:1038000048220020084B5B7813F0FF0F0AD0064BCC
:103810009B68064A1268127801FB02F1B3FBF1F1D2
:10382000084470470A3870470402002064220020D0
:1038300010B50D4B5C68B4F57A7F11D90020A4F562
:103840007A74013080B2B4F57A7FF8D8012C98BF31
:10385000022408B105F0D4F8204605F08FF810BD19
:10386000012C98BF0224F7E70402002008B50D4B95
:103870001B680D4A126811780C4A906092681AB958
:1038800001220A4B9A6008E003FB01F3013B074A5F
:10389000926893423CBF054A9360024B1868FFF759
:1038A00071FB08BD140200206422002004020020E5
:1038B0002DE9F041154B02245C605B7813F0FF0F9B
:1038C00020D0164688460446104FBD68FFF750FBCF
:1038D00005FB08F500FB05F50D48A0FB05356D0956
:1038E0007D607B68012B01D802227A60074B9B68C0
:1038F000084A12681078B3FBF0F0201AB0FBF6F01B
:10390000BDE8F0810A30BDE8F08100BF040200206C
:103910001F85EB516422002008B5002001460246B5
:10392000FFF742FE08BD00BF08B5034B1878597871
:103930009A78FFF739FE08BD0402002008B5024658
:1039400048B9124BD879124908700121D97111492F
:10395000114B19610BE00D4B9B7A13F0FF0F03D154
:103960000B4B1978094BD9710C490B4B1961074B5B
:103970009A720B4B1A68084B9A4207BF18460121EE
:103980000548002109F006FD08BD00BF1402002013
:10399000142800205C0C01086C210020640C010834
:1039A000C027002080B572B600F052FA06F004F984
:1039B00062B6504E504C751C504F04F0EBFD002881
:1039C0000EDD284604F0B6FD012809D1707806F016
:1039D00003FF707804F0D2FD4FF0FF3004F0E2FDF9
:1039E0002378012BE9D0FDF703FBFB78387943EA14
:1039F00000237879D7F8F82743EA00409047404BF6
:103A0000DA78187942EA00225879D3F8F83742EA8E
:103A1000004098473B4B5B78DBB2032B0BD13A4B12
:103A20009B7ADBB2012B06D1FFF728FB022802D1DB
:103A30000020FFF783FF354B1B78FF2B08D0324B5C
:103A4000DB689847FF22314B1A701F22304B1A70E7
:103A5000B378012B05D1F078FEF750F80023F3700E
:103A600002E0F3780133F3702A4B1B78012B35D138
:103A7000294B93F90030002B15DC737A012B2AD0E7
:103A80003C22264B9A732648FDF78AFF337A33731C
:103A9000FEF78AF87060012171723172B1720846C6
:103AA000FCF7E4FD17E0737A012B0FD14FF000080B
:103AB00086F809800122194B9A73FDF7EFFEFEF795
:103AC00073F87060337B337286F80A80124B187873
:103AD0000121FCF7CBFD00220E4B1A70114B1B7815
:103AE000012B7FF46AAFFDF7D9FE00220D4B1A704F
:103AF00063E700BF142800202C2900205C08002068
:103B0000581000200402002014020020612400202C
:103B10007C2900206D280020732800204C00002004
:103B2000680C01086C2800202DE9F84304460E4675
:103B3000884276D83C4DDFF808813C4F072C37D9B6
:103B40002246A4F1080180230B41DBB2E968097821
:103B5000194218D0A9680978194205EB84031B6A39
:103B600014BF334933491961043205EB82021369EA
:103B70004FF4F2701881D2F81090042102F0C8FFBF
:103B8000A9F80A0049E0231D05EB83031A69C2F86E
:103B900010801A69396909891181D3F810903B693D
:103BA00018896FF0010102F0B3FFA9F80A0034E0B0
:103BB000224680232341DBB269680978194218D074
:103BC00029680978194205EB84031B6A14BF1A4956
:103BD0001A491961043205EB820213694FF4F2703D
:103BE0001881D2F81090042102F092FFA9F80A007F
:103BF00013E0231D05EB83031A69C2F810801A69CC
:103C0000396909891181D3F810903B6918896FF0DF
:103C1000010102F07DFFA9F80A000134E4B2A642D6
:103C20008CD2BDE8F88300BF30020020D0200020F5
:103C30008C0C0108900C0108200A0108940C010862
:103C40000C0A010810B54E4B1B780F2B12D14D4CAE
:103C5000237B043354F82300FDF730FA4A4B1868ED
:103C6000012109F097FB4948FDF7A0FA2046FDF72E
:103C700007FB10BD172B36D1454B1B7F072B19D9DE
:103C8000083B80221A41D3B24149C96809781942D8
:103C90000AD13F488468217821EA02022270C26872
:103CA00011780B43137054E0394A926811780B4332
:103CB00013704EE080221A41D3B235494968097821
:103CC00019420AD132480468217821EA020222709E
:103CD000426811780B4313703BE02D4A126811784B
:103CE0000B43137035E01B2B48D1294B1B7F072B4F
:103CF00018D9083B802242FA03F3DAB22449C96892
:103D00000878104225D0224880680478144204D0F4
:103D1000027822EA030303701BE00A7822EA030315
:103D20000B7016E0802242FA03F3DAB218494968B0
:103D3000087810420DD0164800680478144204D068
:103D4000027822EA0303037003E00A7822EA0303FD
:103D50000B700F4B1B7FFA2B03D90F220C4B1A77DA
:103D600004E00F2B02D90022094B1A77084B197F68
:103D70000846FFF7D9FE0220FEF786F810BD00BF07
:103D80007C2900204C010020C02700204002002098
:103D90003002002010B560B91C4C2146FDF79AFB9B
:103DA0002078FDF72FFB1A4B93F86000FEF744FCD8
:103DB00010BD01201549FDF78DFB0020FDF722FB0A
:103DC000144807F0D7FB49F2B24008F097FC124CB8
:103DD000208A0130618A143180B289B201220F4BEE
:103DE00007F024FE208A013080B2618A01220C4B48
:103DF00007F01CFE0B4807F0BDFB00200F21FFF76A
:103E000093FE0120FEF718FC10BD00BF23290020FF
:103E100070000020242B010830020020980C0108BB
:103E2000440A0108CC24010808B500264FF47A742E
:103E30000125FDF797FC3046FFF7C6FC204604F04D
:103E4000DFFD2846FFF7C0FC204604F0D9FDF0E76F
:103E50002DE9F04F8BB0CF4B9A6942F004029A6182
:103E60009A6942F008029A619A6942F010029A61D6
:103E70009A6942F001029A61C7480121FFF734F8BC
:103E8000C64E4FF4004333614FF42C43ADF8143069
:103E900003258DF8165010278DF81770304605A9A8
:103EA000FEF7CCFF4FF48043ADF814308DF8165078
:103EB00048238DF81730304605A9FEF7BFFF4FF4B1
:103EC0000063ADF814308DF816508DF81770B448B3
:103ED00005A9FEF7B3FF0124ADF814408DF8165084
:103EE0008DF81770AF4805A9FEF7A8FF04F0C8FECB
:103EF0004FF40070214600F019FD0823ADF808309A
:103F000000258DF80B5030460DEB0301FEF796FFB0
:103F100005958DF818508DF819504FF460230793CC
:103F200008958DF82440A04D284605A901F078FF9A
:103F300028460D212246072301F0D0FF28464FF4E2
:103F40000871224601F09EFF2846214601F08EFFAF
:103F5000284601F0A3FF2C46204601F0A5FF0028CB
:103F6000FAD1914801F0A4FF8F4C204601F0A6FF42
:103F70000028FAD18D4D4FF48023C5F88030F0230E
:103F800085F81233834FBB6943F40063BB61884BF0
:103F900047221A854FF47A7199859A8992B242F034
:103FA00001029A811A8892B242F081021A804FF07F
:103FB00000732B60A02385F81933FB6943F00103DC
:103FC000FB614FF0804842F20F73A8F82830A8F840
:103FD0002C108123A8F800300124A8F80C404FF0E1
:103FE00080532B60E02385F81C330220214600F02B
:103FF000ABFC4FF44073ADF804304FF003098DF87B
:10400000069018238DF80730644801A9FEF716FFC3
:10401000684B1B68684AA2FB03235B0D013B4FF40E
:104020008062ADF80C20ADF808304FF0000AADF812
:104030000EA0ADF80AA0614E304602A9FDF712FEAF
:104040006023ADF81430ADF81CA0ADF816404FF465
:10405000A07BADF81AB0304605A9FDF753FE3046F7
:104060000821FDF7E3FEADF81640ADF81AB0304672
:1040700005A9FDF789FE30460821FDF7DFFE304631
:104080002146FDF7C5FE30462146FDF7B3FEFB692C
:1040900043F00403FB614A4BA3F8289045F6C05255
:1040A0009A8580221A809C81C5F80080C02685F8F8
:1040B0001E634FF40010214600F046FCADF8086086
:1040C0008DF80A901C238DF80B30364802A9FEF7B4
:1040D000B5FEADF818A04BF6FF73ADF81A30ADF889
:1040E0001C40ADF81EA04FF48043ADF82030354B96
:1040F0000593354D2846214604F01CFD284605A9A8
:1041000004F0A8FCAB889BB243F48073AB804FF4FF
:1041100000342846214604F059FD0028F9D1234FE8
:1041200001257D60D02387F8203304F0F1F928467B
:10413000294600F0EDFB4FF48040294600F0F6FBE5
:10414000224C204603F07AFF236823F0010323600A
:104150001F4BA360002004F00BFA2844E0602368A2
:1041600023F01003236003266660236823F04003D6
:104170002360236843F080032360236823F44073A3
:104180002360236823F440632360236823F0200323
:1041900023601FE000100240000C1A0000100140D4
:1041A00000080140000C01400024014000E100E053
:1041B000002C0140E8010020819F5E1600040040B1
:1041C00000080040A0860100005400405800024052
:1041D00004380140236843F44053236028462946AD
:1041E00000F096FB4FF48040294600F09FFB4FF40F
:1041F0008063ADF8083004238DF80B30DFF884803D
:10420000404602A9FEF71AFE4FF40073ADF80830DD
:104210008DF80A6018238DF80B30404602A9FEF78E
:104220000DFE4FF4612305930026ADF81860ADF83C
:104230001A60ADF81C60ADF820600C23ADF81E309C
:1042400008F54058404605A902F0F0F840464021E4
:104250002A4602F055F94046294602F043F9204625
:10426000294603F07FFF204602212A4603F088FFFB
:104270004FF400433B6087F80F6304F05DFB0BB025
:10428000BDE8F08F00080140F0B585B0FF26ADF81D
:104290000C6003248DF80E4010258DF80F505C4FF4
:1042A000384603A9FEF7CAFD1723ADF80C308DF888
:1042B0000E408DF80F50574C204603A9FEF7BEFD67
:1042C0003846314609F032F82046294609F03AF8D6
:1042D0002046022109F046F82046042109F04AF858
:1042E00020464FF4805109F035F82046012109F0AD
:1042F00049F808F093FB0820122108F0F9FF00208C
:1043000008F084FF002008F01FFF002008F00AFAE0
:10431000414C204607F02EF949F2B24300934B205E
:10432000C82100223D4B07F0E3FB0A2004F068FBA4
:10433000FEF710FE204607F01DF9FEF759FEC0B14A
:10434000012809D14FF4784300931420AA210022B8
:10435000334B07F0CDFB0AE0022808D14FF4784335
:1043600000931420AA2100222E4B07F0C1FBFFF777
:104370005BFD40F2796300931420AA2100222A4BAE
:1043800007F0B6FB4FF6FF730093AA210022274BDC
:1043900007F0AEFB012004F033FB1420FEF7F2FD22
:1043A0001D4807F0E7F8FEF76FFE50B94FF4784369
:1043B00000931420962100221D4B07F099FBFFF774
:1043C00033FDFFF719F8144807F0D4F840F2796389
:1043D0000093142096210022134B07F089FB4FF61F
:1043E000FF73009396210022124B07F081FB0020FF
:1043F0000B21FEF7D9FB01200B21FEF7D5FBFDF7C2
:10440000B1F94FF4FA7004F0FBFA05B0F0BD00BF4B
:104410000008014000100140242B0108A00C0108F5
:10442000B80C0108E80C0108180D0108240D01085A
:10443000440D0108600D010870B584B0002504AC7E
:1044400024F8025D02F0EEFC1C4E304602F02EFD18
:1044500030461B4902F04AFD02F0F0FC40F64103F1
:1044600000932846294640F28F12EF2308F090FE71
:10447000144807F07FF8144D2046294607F044FB06
:10448000BDF80E00C0F5C87040F2BD330093C0F314
:104490004F00702101222B4607F02AFB642004F014
:1044A000AFFABFF34F8F0949CA6802F4E062084BC4
:1044B0001343CB60BFF34F8FFEE700BF00FE010840
:1044C0005ADFFDA5900D01087C0D010800ED00E00C
:1044D0000400FA0510B40B7843B1024602F8013B20
:1044E000141A11F8013F002BF8D100E000242046F7
:1044F0005DF8044B704700BF70B504461D46561E5C
:10450000092B03D8002E0BDC00260FE00D4BA3FB7C
:1045100005233246DB08FFF7EFFF0646201805E0CB
:10452000501E204404F8011B8442FBD1054BA3FB21
:104530000523DB0803EB8303A5EB43033033037050
:10454000701C70BDCDCCCCCC70B50446002B04DA09
:104550005D42561E092D05D82EE01D46013A092B55
:1045600009D824E01D4BA3FB0523DB0832465B4240
:10457000FFF7EAFF06E01948A0FB03032046DB082B
:10458000FFF7E2FF04441DE01046264606F8011B33
:1045900001380028FADC013A22EAE272501C044495
:1045A000002B0FDA2D2304F8013B01300AE0002A2A
:1045B000D8BF002006DDE7E7023A002AD8BF002076
:1045C000F0DDE1E7054BA3FB0523DB0803EB8303E9
:1045D000A5EB430330332370013070BDCDCCCCCC80
:1045E000F0B583B004461F46089D561E2B0904D122
:1045F000002E0ADC034600260DE0009332463B46BF
:10460000FFF7EEFF0646231805E0531E034404F8A7
:10461000011B9C42FBD105F00F02092A03D8154665
:1046200030351D7009E027B105F00F0537351D70D5
:1046300003E005F00F0557351D70701C03B0F0BD89
:104640002DE9F04F83B00F46064608B100210170F6
:1046500000254FF0010AA8464FF030097CE02529DB
:1046600004D0013231700135013675E051782529C9
:1046700004D131700232013501366DE0302919BFA5
:10468000541C2021941C494694F800E0AEF13002FD
:10469000D2B2092A0FD8424602EB82020EEB420246
:1046A000303A02F0FF0214F801EFAEF13000C0B270
:1046B0000928F1D900E04246501987423CBF7A1BD5
:1046C000D2B2AEF1580EBEF1200F56D8DFE80EF090
:1046D0002B555555555555555555553D1155555510
:1046E000551155555555555555555535551955551A
:1046F000210003F1040B30461B68FFF725FF5B46E2
:1047000027E003F1040B30461B68FFF7F5FE5B461C
:104710001FE003F1040B1B68009330464346FFF78C
:104720005FFF5B4615E003F1040B1B680093304606
:104730005346FFF755FF5B460BE003F1040B304691
:104740001968FFF7C7FE5B4603E01A68327004334E
:104750005046621C06440544117819B1BD42FFF46D
:104760007EAF05E0AF4203D900233370284606E050
:10477000002306F8013C681E01E04FF0FF3003B053
:10478000BDE8F08F10B50C46134664212246FFF7B2
:1047900057FF10BD0EB400B582B003AA52F8041B37
:1047A0000192FFF7EFFF02B05DF804EB03B0704732
:1047B000054B1B689A688A4204D0DB688B4218BF9D
:1047C0004FF0FF30704700BF1804002070B504465A
:1047D000007868B10E4600253146FFF7E9FFB0F1D9
:1047E000FF3F07D0013514F8010F0028F4D100E095
:1047F0000025284670BD00BFF0B5A3B006468E4622
:1048000017466C460D4D0FCD0FC40FCD0FC42B684E
:10481000236009A871463A46FFF7B4FF632806DD16
:10482000074B1B686846D968FFF7D0FFFEE709A869
:104830003146FFF7CBFF23B0F0BD00BF701A01086F
:1048400018040020024A136A18431062704700BF20
:1048500000100240014B1860704700BF3C04424208
:1048600010B4274B5B6803F00C03042B05D0082B16
:1048700006D0F3B9234B03601DE0224B03601AE01E
:104880001F4A53685268C3F38343023312F4803FD4
:1048900004D11D4A02FB03F303600CE0184A52687E
:1048A00012F4003F14BF184A164A02FB03F30360D8
:1048B00001E0144B0360124A5368C3F30313134916
:1048C000CC5CE4B20368E34043605468C4F3022460
:1048D0000C5DE4B223FA04F484605468C4F3C22487
:1048E0000C5DE4B2E340C3605268C2F381320A4413
:1048F000127CD2B2B3FBF2F303615DF8044B704754
:104900000010024000127A0000093D004808002013
:1049100021B1054A5369184350617047024A5369EF
:1049200023EA0000506170470010024021B1054A9F
:104930009369184390617047024A936923EA000023
:10494000906170470010024021B1054AD3691843B5
:10495000D0617047024AD36923EA0000D0617047F2
:1049600000100240014B1860704700BF40044242F3
:1049700082B002B0704700BF2DE9F8430446884674
:1049800088422ED2184F194E4FF0000925463A683A
:104990003388E31A1344204693F8251306F090FD5C
:1049A000012814D03388D84320443A68E31A1344CA
:1049B00080B293F82513FBF7BFFF024639683388AE
:1049C000E31A0B44204693F8251307F0C1F83B681F
:1049D0003288AD1A1D4485F845960134A4B2A0452D
:1049E000D4D8BDE8F88300BF702900200200002061
:1049F0002DE9F04F83B0344B1C88041BA4B2091A74
:104A000049008BB21E46019307F092FE6500ADB2DD
:104A1000AE4254D92D4FDFF8B090DFF8B4B03B6808
:104A200000941A1992F84626012A3AD1AA46B9F8F2
:104A30000000013020442B4480B293F8261307F085
:104A400089FE3B682B4493F8270393F82633C01A5A
:104A50000AF046FE21F0004319460BF069F91FFAEF
:104A600080F808F1FF339BB2BD2B03D8B8F1000FDB
:104A700002D116E04FF001080026B9F8000001301D
:104A800020443B68534493F82613314480B289B2E2
:104A9000FBF752FFDBF8003098470136B3B2984578
:104AA000EBD13B68009A13444FF0000283F846268E
:104AB0000134A4B20235ADB2019BAB42AFD807F0CE
:104AC00041FE03B0BDE8F08F0200002070290020F5
:104AD000B02700202DE9F047044688469146354B23
:104AE0001B68188807F010FEA8F1020844455EDA3A
:104AF0002546314F2F4EDFF8C8A0388801302044BA
:104B000033682B4480B293F8261306F0D9FC0128B1
:104B100014D038880130204433682B4480B293F895
:104B20002613FBF709FF024638880130204433681A
:104B30002B4480B293F8261307F00AF833685A1909
:104B400092F806E04FFA8EF24A44BAF80010881D37
:104B5000824203DA5A1982F826030DE017490988C0
:104B6000881F824203DD5A1982F8260304E059198E
:104B70000EEB090281F826233888013020442B44AB
:104B800080B293F8261306F09BFC01280AD0336804
:104B90003888013020441D4480B295F826131A88C5
:104BA00006F0D6FF0134A4B225464445A5DBBDE896
:104BB000F08700BF702900200200002016000020AE
:104BC000180000202DE9F04F89B082460392023987
:104BD0004B000493834240F3FE800446002301937C
:104BE000DFF80482DFF804B27C4B1E88013601999D
:104BF0000E44B6B2ADF81E60D8F800301A1992F81B
:104C00002653ADF81C50671CDA1992F82693ADF8BC
:104C10001A908AB20292134493F84636012B30D18F
:104C20004D4502D92B464D46994607F081FD304649
:104C3000294607F08FFDC5EB09091FFA89F909F12B
:104C4000FF339BB2BD2B03D80FFA89F30BB916E0E3
:104C500001234FF00109059434461E46204629469B
:104C6000FBF76AFEDBF80030984709F101024B467A
:104C70000135ADB21FFA82F9B342EFD1059C07F0BE
:104C800061FDD8F80030DA199679BDF80C5072B28F
:104C90002A4412B252490988881D824203DADA197D
:104CA00082F8260312E0DFF83CE1BEF800E0AEF146
:104CB000060C624504DDDA19E64682F826C305E0F3
:104CC00003EB070E039A16448EF826631A1992799D
:104CD00056B235442DB2A84204DD1A19063182F8C5
:104CE00026130DE03F490988881F854203DD1A1904
:104CF00082F8260304E019190398024481F8262358
:104D0000DA1992F82623191991F82613501A002857
:104D100050DBADF81C10ADF81A200DF11E0007A9EC
:104D200002460DF11A0306F0F7FB01283AD0BDF850
:104D30001E90BDF81C60BDF81A50AE4202D9334631
:104D40002E461D4607F0F4FC4846314607F002FDAA
:104D5000AE1BB6B2731E9BB2BD2B02D836B20EB9D3
:104D60000CE001260125D8F80020DBF8003010887F
:104D700098476A1C2B4695B2B342F4D107F0E2FC87
:104D8000D8F800301C44BDF81C2084F826231F44AA
:104D9000BDF81A2087F82623029A1344012283F8CB
:104DA00046260CE0D8F80030029A1344002283F81B
:104DB000462604E0029A1344002283F846260AF1AC
:104DC00002031FFA83FA5446019B01330193049BAB
:104DD0009A45FFF609AF09B0BDE8F08F0200002048
:104DE000180000201600002070290020B0270020A5
:104DF0002DE9F04F87B00746764B1868BB46C319BC
:104E000093F8269392B2009293F9063013449BB222
:104E10001CB2714A1288951FAC4203DD384480F8F9
:104E200026530AE06D4A1288951DAC423844BABF39
:104E30002A4680F8262380F826334B1E01939B4593
:104E400080F2C580634DDFF89C81654B1C8801347E
:104E50003C44A4B2ADF816402B6803EB0B0292F869
:104E60002613ADF814100BF10106334493F826A372
:104E7000ADF812A092F84636012B2DD11FFA89F910
:104E8000CA4502D24B46D1469A46CA4500F08E80AA
:104E9000C9EB0A0A1FFA8AF3029307F049FC20467D
:104EA000494607F057FC029BA3B14FF0000A039656
:104EB0002646029C09EB0A01304689B2FBF73CFD0D
:104EC000D8F8003098470AF1010A1FFA8AF3A34282
:104ED000F0D3039E07F036FC9DF812902B68334404
:104EE00093F90630009A13449BB219B23B4A1288D8
:104EF000901D814202DAADF8120009E0364A1288AC
:104F0000901F8142C6BF0246ADF81220ADF81230A4
:104F10000DF1160005A902460DF1120306F0FCFA88
:104F2000012830D0BDF816300293BDF814A0BDF8AA
:104F30001240A24502D95346A2461C4654453ED0D3
:104F4000CAEB0404A4B207F0F3FB0298514607F041
:104F500001FC64B14FF0000A2A68D8F800301088CC
:104F600098470AF1010A1FFA8AF3A342F4D307F023
:104F7000E9FB2B685B44BDF8142083F8262301224B
:104F800083F8462604E02B685B44002283F846261B
:104F90002B681E44BDF8123086F826330137BFB2A5
:104FA000BB46019B9F42FFF650AF10E007F0C0FBED
:104FB0002046514607F0CEFB0123029375E707F028
:104FC000B7FB0298214607F0C5FB0124C2E707B0F2
:104FD000BDE8F08F70290020160000201800002086
:104FE00002000020B027002070B5C2B0244B1C681E
:104FF000244B9C4204D1244B1B8882339BB200E09B
:105000009623ADF8063101A800214FF480720BF011
:10501000C7FAA01D01A903F049FC194B196801AAA0
:1050200021AD64241948137804FB03F380FB03E6E5
:105030001E44DB17C3EBE6137F3B8B76167812F822
:10504000013F33445B1004FB03F380FB03E61E4483
:10505000DB17C3EBE6137F3BCB760231AA42E2D1EA
:10506000074B1B6881229A76DA76BDF80621142058
:1050700040F2131112B2FFF7BBFE42B070BD00BF89
:10508000702900205C08002068000020818080805A
:105090002DE9F84F0446884688424FD2284E294FC2
:1050A0003268A146284B1988631A013BD01890F842
:1050B000460601282AD1134493F826B3631C591AD3
:1050C0000A4492F825A3D34502D95B46D3469A46B3
:1050D000DA452AD0CBEB0A0A1FFA8AFA07F028FB36
:1050E0002046594607F036FBBAF1000F0CD00025D8
:1050F0000BEB0501204689B2FBF71EFC3B68984785
:105100000135ABB25345F3D307F01CFB32680E4BAD
:105110001B88C3EB09031344002283F8452601349E
:10512000A4B2A045BCD8BDE8F88F07F001FB20462B
:10513000514607F00FFB4FF0010AD8E7BDE8F88FA2
:1051400070290020B02700200200002008B5054B80
:10515000198801F1140001F58A7180B289B2FFF754
:1051600097FF08BD0200002001280CBF0122002289
:10517000014B5A71704700BF14020020012807D06C
:1051800010B1022808D07047054A064B1A607047D4
:10519000054A044B1A607047044A024B1A60704774
:1051A0005C080020702900205810002054180020AE
:1051B000034BC3F8FC06027C024B1A70704700BF19
:1051C0005419002029280020F8B50F461646084C2F
:1051D0002568FFF7D3FF074BD3F8FC365B683846EA
:1051E000314698472368AB421CBF23461D60F8BD7B
:1051F00070290020541900202DE9F04F85B003904C
:10520000C3B2C0F30720002800F06481B34A1268DB
:10521000D2789A4202D01846FFF7B0FF4FF48022AE
:10522000AF4BC3F88020AF4B9B7ADBB2012B41D14F
:10523000AD4B1B79012B04D1A84B1A68AB4B9A429A
:1052400006D0FDF721FF022840F04481FEF7D4F894
:10525000FDF722FD01282DD1A04C2368A44A128815
:10526000023AD878A34B198892B2FFF7ADFF2368B2
:10527000D878A14C421D54F8225093F8D817FDF766
:1052800093FC28619D4B1B68A34209D1237B934A61
:105290001268D17801318B4214BF0021012100E056
:1052A00000218E4B1B68DB780533934A52F82300AC
:1052B00008F070F8924B1B78002B40F0FC80914B6B
:1052C0001B681C461A78012A40F2D680884B1B883E
:1052D0008849B1F800808C4901F5E060D1F8FC16EE
:1052E000814200F0C9807F49897A11F0FF0F00F0F8
:1052F000C380013BC8EB03081FFA88F813469045AA
:10530000C0F2DE80754AD2F800B06FF00402CBEB39
:1053100002020292A24698FBF3F30BEB030291798F
:105320000BEB080291719AF80040022C0AD15B4401
:1053300093F9061093F905300B4403EBD3735B101C
:1053400053718CE05EB20BEB060292F80690013BC3
:105350005DB20BEB05039F794FFA89F27BB29A425B
:1053600014D1012C7BD908F106031B1B5B4408F107
:105370000701091BA21ED2B2114459440BEB0800CD
:10538000827903F8012F8B42FAD168E04FFA89F94C
:1053900009F17F007FB26FF07E03DB1B18440AF037
:1053A0009FF9009021F00043019320460AF088F90C
:1053B00002460B46009801990AF022FBB94502DC2F
:1053C000012C2CD84BE0012C49D908F10606361BDC
:1053D0005E4408F107073F1BA31EDBB21F445F4476
:1053E000029BC8EB03031C445D44CDF8008080465B
:1053F0008946A0190AF074F902460B464046494610
:105400000AF0D4F908F0A0FA0AF06AFCAB79184463
:1054100006F8010FBE42ECD1DDF800801FE008F174
:1054200006075F4401255E44CDF80080804689462A
:1054300028460AF045F902460B46404649460AF01E
:10544000B5F908F081FA0AF04BFCB379184407F873
:10545000010D0135EDB2A542EAD1DDF800809AF8E0
:105460000030C3EB080843457FF755AF28E01A78B2
:1054700003F8012D8B42FAD1234BD3F8FC061C4BC9
:105480001B881C4A1188591A144B1A68036800209B
:1054900089B292789847134B9B79DBB2012B04D1E8
:1054A0001A4B1B681B68984705E0194B1B78012BAA
:1054B00001D103F0F5FF4FF48022094B1A6009E097
:1054C000B8F1000FD8DD054B196808F107030B444C
:1054D0000731CCE705B0BDE8F08F00BF7029002090
:1054E00000E100E0140200205C08002058100020B9
:1054F0001400002002000020D020002038000020EE
:105500002C29002064220020541900209C27002010
:1055100023290020F8B51D4B9D7AEDB21C4A166870
:1055200000229A721B4B03F21472D3F8FC3693429A
:105530000FD1194C194F3A88023A0020218892B2B3
:10554000FFF742FE3A88023A0120218892B2FFF723
:105550003BFE134CE378207943EA00236079D4F8CA
:10556000F82743EA0040904794F8FF3794F8000882
:1055700043EA002394F80108D4F8F42F43EA0040EA
:105580009047024B9D72024B1E60F8BD1402002032
:10559000702900205419002002000020140000206F
:1055A0005C0800200C4B1B78172B13D110B50B4B4C
:1055B0001868002107F0EEFE094C2388023B238087
:1055C0002046FBF75DFE2046FBF77EFD2388023375
:1055D000238010BD704700BF7C290020C027002019
:1055E000F422002038B5041E2A4D2B4B002808BF9A
:1055F0001D46FFF7C3FD294B1B780F2B26D02046F5
:10560000FDF736FBC0B9254B1B78172B09D1244B6E
:105610001A6892F8D8370A2B3BD8013382F8D8376A
:1056200020E01B2B35D11E4B1A6892F8D83783B374
:10563000013B82F8D83715E0184B1B78172B01D0A7
:105640001B2B26D11748FCF7ABF90BE0164B18685B
:10565000002107F09FFE2846FBF712FE2846FBF7C5
:1056600033FD38BD0E4A1368D3F8F41793F8D80702
:1056700003EB4003B3F8DA370B800B4B1D6813685C
:10568000204693F8D817FDF78FFA28610220FCF71F
:10569000FBFB38BD68240020BC2400207C290020AE
:1056A000702900205C1B0108C027002008B50020DD
:1056B000FFF798FF08BD00BF08B50120FFF792FF74
:1056C00008BD00BF30B589B0514A6B4607CA03C355
:1056D0001A700DF10900002115220AF061FF4D4BEF
:1056E0001B781B2B1DD14C4B1B7893B1013BDBB2BC
:1056F000494A137013B90021484A5171474A5279F7
:10570000D2B2012A0CBF464A464A1344464A1360A5
:105710003DE0464B1B78132B45D80133434A1370A9
:1057200035E0172B22D1414B1B78414A126892F980
:105730000920934203D13F48FCF732F966E08BB968
:10574000354B1B78022B02D80133334A1370324B8E
:105750001B78012B1BD1384A1279DAB90120FFF7E7
:1057600003FD14E0013B314A137010E00F2B0CD104
:10577000324B1B78022B49D13148324B1860FCF771
:105780000FF90022304B1A7001E01F2B3ED1224B43
:105790001B7843B1013B03EB83032C4A02EB430329
:1057A0002B4A136108E0214B1B7803EB8303294A42
:1057B00002EB4303264A136100F0F0FA03F012FBF8
:1057C0000220FCF761FB244B9A68244C0DF1070082
:1057D00021460132FEF7DEFF68460AF0ADFF0546BE
:1057E0000DEB00021E4B03CB4DF8050051601B88EA
:1057F000138168460AF0A0FF0B4B1B6868442146E2
:105800001A78FEF7C7FF6846FCF7CAF809B030BD42
:10581000301B01087C2900203128002014020020C0
:10582000381C01083C1C010864220020322800209A
:1058300050200020801B0108581000206124002007
:10584000A41B01087429002064240020A807010873
:10585000B8200020C807010824020020D008010851
:10586000C81B010808B5124B1B78172B03D01B2B44
:1058700001D00F2B1AD10F4B9B7ADBB2012B06D133
:105880000020FEF75BF80C48FCF78AF808BD012001
:10589000FEF754F8074BDB7913F0FF0F03D10748ED
:1058A000FCF77EF808BD0648FCF77AF808BD00BF93
:1058B0007C29002014020020D41B0108E81B0108E9
:1058C000FC1B010810B51A4B1A681A4B9A422ED0CD
:1058D000194B1B78172B0CD1184B1868002107F0B7
:1058E00059FD174C2046FBF7CBFC2046FBF7ECFBA1
:1058F00010BD0F2B1BD1134B5B7813F0FF0F16D08D
:10590000114A124B1A600F4B1B78DBB2022B09D0E5
:105910000F4A104B1A6001200F4B19884FF4784240
:10592000FBF704F9054B1B6840F21F425A8110BD7A
:1059300050200020682000207C290020C027002063
:105940004C0100200402002039250008200200201C
:10595000D40000206C000020BA27002038B5474B47
:105960001B780F2B6FD1464B1A68464B9A4200F0BA
:105970008480454B93F86030012B02D10020FCF766
:105980005BFE424B1988424B1B885B1A013B64202B
:1059900000FB03F33F4A1268501A93FBF0F00AF041
:1059A000F1FA3D4B18603D4B9B7913F0FF0F0FD17F
:1059B00001203B49FBF78EFD0020FBF723FD012270
:1059C000364B9A7103F00EFA3648FBF77DFB0DE07B
:1059D0000025324B9D713348FBF7E8FB304C2846DD
:1059E0002146FBF777FD2078FBF70CFD264B93F85B
:1059F0006030012B02D10120FCF71EFE254C002057
:105A00002146FBF741F9214B1D88214B1B885B1B6D
:105A1000013B642000FB03F00AF0B4FA1E4B196846
:105A20000AF0B8FB0AF0EEFC80B2284420600120A6
:105A30002146FBF729F90220FCF726FA1A4BDB680E
:105A40001B68984738BD172B17D1144B9B79DBB2D5
:105A5000012B12D1154D2868002107F09BFC114C39
:105A60002046FBF70DFCA37A043354F82300FBF720
:105A700025FB2868012107F08DFC38BD7C2900201A
:105A8000502000206820002070000020020000202C
:105A900014000020F40000202C2800201402002014
:105AA000232900204826002004020020C0270020CF
:105AB00008B5054B1B780F2B05D1044A044B1A601F
:105AC000012001F0A9F808BD7C290020A16C000884
:105AD0002002002010B50446174B9A6B00EB8000A3
